:020000040800F2
:100000009010002439030008A55C00082D51000859
:10001000355C0008C50600089D740008000000005B
:10002000000000000000000000000000C5620008A1
:10003000ED0B00080000000031600008A16300081B
:100040005703000857030008570300085703000828
:100050005703000857030008570300085703000818
:100060005703000857030008570300085507000806
:10007000610700086D070008790700088507000878
:10008000910700089D070008570300085703000860
:1000900057030008570300085703000857030008D8
:1000A00057030008570300085703000857030008C8
:1000B00057030008570300085703000857030008B8
:1000C00057030008570300085703000857030008A8
:1000D000570300083D740008697400089174000813
:1000E00057030008570300080000000057030008EA
:1000F000570300085703000857030008A907000822
:100100005703000857030008596500085703000803
:1001100057030008516A00085703000857030008F6
:100120005703000857030008570300085703000847
:100130005703000857030008570300085703000837
:1001400000000000000000000000000000000000AF
:100150005703000857030008570300085703000817
:100160005703000857030008570300085703000807
:100170005703000857030008570300080000000059
:1001800057030008570300085703000857030008E7
:1001900057030008570300085703000857030008D7
:1001A00057030008570300085703000857030008C7
:1001B00057030008570300085703000857030008B7
:1001C00057030008570300085703000857030008A7
:1001D0005703000857030008570300085703000897
:1001E0005703000857030008570300085703000887
:1001F0005703000857030008570300085703000877
:100200005703000857030008570300085703000866
:1002100057030008416500084D65000857030008B2
:1002200057030008570300085703000800000000A8
:100230005703000857030008000000005703000898
:100240005703000857030008570300085703000826
:100250005703000857030008570300085703000816
:100260005703000857030008570300085703000806
:100270005703000857030008570300080000000058
:100280005703000857030008570300080000000048
:10029000000000005703000800F002F800F03CF8EE
:1002A0000AA090E8000C82448344AAF10107DA45D1
:1002B00001D100F031F8AFF2090EBAE80F0013F0E7
:1002C000010F18BFFB1A43F001031847187B000009
:1002D000387B0000103A24BF78C878C1FAD852079A
:1002E00024BF30C830C144BF04680C6070470000B0
:1002F0000023002400250026103A28BF78C1FBD82F
:10030000520728BF30C148BF0B6070471FB507F0C8
:1003100023FD1FBD10B510BD00F05EF91146FFF7BB
:10032000F5FF07F043FC00F07CF903B4FFF7F2FFA0
:1003300003BC00F07FF900000A4880470A48804764
:100340000A480047FEE7FEE7FEE7FEE7FEE7FEE7B6
:10035000FEE7FEE7FEE7FEE705480649064A074BCB
:1003600070470000310D0008496400089902000838
:10037000900A002490100024900C0024900C00247B
:1003800053EA020C00F069802DE9F04B4FF00006B3
:10039000002B1FBFB3FA83F503FA05F424FA05F620
:1003A0005E4012BF1643B2FA82F502FA05F4C5F1B7
:1003B00020051EBF22FA05FC44EA0C04203556EA4B
:1003C000044C4FEA144418BF641C4FF000084FF06F
:1003D0000009904271EB030C39D3002919BFB1FA1F
:1003E00081F701FA07F6B0FA80F700FA07F6C7F1CD
:1003F00020071EBF20FA07FC46EA0C062037B6FB92
:10040000F4FCA7EB0507103F07F01F0BCBF120060C
:100410000CFA0BFB2CFA06F644BFB3460026202F3D
:10042000A4BF5E464FF0000B5BEA060C08BF4FF01E
:10043000010B19EB0B09ABFB027C48EB0608C01B58
:1004400006FB02CC0BFB03CC71EB0C01C1E70B46A6
:10045000024641464846BDE8F08B13B54FF0000018
:100460004FF00001AFF30080BDE81C407047032A45
:1004700040F2308010F0030C00F0158011F8013BC1
:10048000BCF1020F624498BF11F801CB00F8013BA8
:1004900038BF11F8013BA2F1040298BF00F801CB6C
:1004A00038BF00F8013B11F0030300F02580083A43
:1004B000C0F0088051F8043B083A51F804CBA0E89A
:1004C0000810F5E7121D5CBF51F8043B40F8043BEF
:1004D000AFF30080D20724BF11F8013B11F801CB24
:1004E00048BF11F8012B24BF00F8013B00F801CBF5
:1004F00048BF00F8012B704710B5203AC0F00B80C0
:10050000B1E81850203AA0E81850B1E81850A0E817
:100510001850BFF4F5AF5FEA027C24BFB1E8185071
:10052000A0E8185044BF18C918C0BDE810405FEAE1
:10053000827C24BF51F8043B40F8043B08BF70475D
:10054000D20728BF31F8023B48BF11F8012B28BF62
:1005500020F8023B48BF00F8012B70474FF0000223
:1005600000B5134694469646203922BFA0E80C50A9
:10057000A0E80C50B1F12001BFF4F7AF090728BF84
:10058000A0E80C5048BF0CC05DF804EB890028BF00
:1005900040F8042B08BF704748BF20F8022B11F029
:1005A000804F18BF00F8012B7047704770477047A5
:1005B00010B500F009F8006810BD10B5044600F051
:1005C00003F8046010BD0000004870472C0A0024A6
:1005D000004870472C0A00247546FFF7F9FFAE4625
:1005E00005006946534620F00700854618B020B53F
:1005F000FFF7B2FEBDE820404FF000064FF00007C5
:100600004FF000084FF0000B21F00701AC46ACE8BA
:10061000C009ACE8C009ACE8C009ACE8C0098D4627
:10062000704710B50446AFF300802046BDE8104087
:10063000FFF77BBE01491820ABBEFEE72600020093
:10064000704700001D48F0B51B4E0388D81C840875
:100650000A2C01D2002224E00A240022164D4FF673
:10066000FF70283D002100EA8200984200D2295CF8
:10067000471C9F4203D22F187F7841EA0721871C2D
:100680009F4203D22F18BF7841EA0741C71C9F42FF
:1006900003D22844C07841EA006146F82210521C77
:1006A00092B2A242DAD3002003E0611C46F8240093
:1006B0008CB20A2CF9D3F0BDEC0000240C0000240D
:1006C00001707047FEE7000006490A78002A07D14A
:1006D00001230B70488004488A80102101F0F6BD88
:1006E00070470000940000240010025810B50A4C16
:1006F000207800280ED0A088401C80B2A08061889D
:10070000884207D305480122102101F0DFFD0020B7
:100710002070A08010BD000094000024001002583A
:1007200010EE100A0949884202DD47F6FF70704753
:1007300010EE100AB0F1474F01D905487047BDEEE1
:10074000C00A10EE100A00B27047000000FEFF461B
:100750000080FFFF014800F0EDBD00005C070024B1
:10076000014800F0E7BD00004C080024014800F0FB
:10077000E1BD0000B4090024014800F0DBBD000029
:100780006C060024014800F0D5BD0000D407002409
:10079000014800F0CFBD00003C090024014800F0F2
:1007A000C9BD0000C4080024014800F0C3BD00001A
:1007B000E4060024294A016891423AD0274A1832B7
:1007C000914236D0254A3032914232D0234A4832C3
:1007D00091422ED0214A603291422AD01F4A78326B
:1007E000914226D01D4A9032914222D01B4AA83213
:1007F00091421ED01A4A91421BD0194A1832914296
:1008000017D0174A3032914213D0154A48329142DC
:100810000FD0134A603291420BD0114A7832914284
:1008200007D00F4A9032914203D00D4AA83291422C
:1008300011D1CAB21823103AB2FBF3F26FF30901D7
:10084000032A02F00703074AD25CC26500D9091DDA
:1008500081650846704721F0FF01F9E7100002406A
:1008600010040240847D000830B5224A012301684B
:100870009142CAB21BD01F4C1434A14217D01D4C58
:100880002834A14213D01B4C3C34A1420FD0194C48
:100890005034A1420BD0174C6434A14207D0154C00
:1008A0007834A14203D0134C8C34A1420CD11421D2
:1008B000114C083AB2FBF1F10F4A803201F01F05EA
:1008C00004EB8101AB4010E00C4D1824103A0D44AC
:1008D000B2FBF4F1A82D00D80831094A01F01F0439
:1008E00002EB8101064AA3408032603080E80E00AE
:1008F00030BD00000854025800580258F0FBFDBFFC
:100900000008024010B50279531E072B2DD8174C52
:100910000168A1421BD0154C1434A14217D0134CCE
:100920002834A14213D0114C3C34A1420FD00F4CBB
:100930005034A1420BD00D4C6434A14207D00B4C73
:100940007834A14203D0094C8C34A14203D1084928
:10095000074C443102E00749064C443104EB820263
:10096000C0E91B2101219940416710BD085402587C
:10097000FC580258FC08024010B583694FF0C0745F
:10098000826A0146002053B1B3F5005F15D072B101
:10099000012A0CD0022A0AD0032A09D104E01AB194
:1009A000012A06D0022A03D1C96AC90100D5012053
:1009B00010BDC96AA142FAD010BD002AF7D0012AA1
:1009C000F2D0022AF3D0032AF3D010BD2DE9F04F64
:1009D000804E804FDFF8FC911836DFF8F8A14837D9
:1009E0000468856D0AF1300ADFF8ECB14C45DFF898
:1009F000ECC1DFF8ECE16DD0B4426BD0544569D066
:100A0000BC4267D0DFF8D081A8F11808444561D016
:100A10005C455FD064455DD074455BD0DFF8C48130
:100A2000444557D0DFF8BC8108F11808444551D03F
:100A3000DFF8B08108F1300844454BD0DFF8A481DD
:100A400008F14808444545D0DFF8988108F160086E
:100A500044453FD0DFF88C8108F17808444539D00F
:100A6000DFF8808108F19008444533D0DFF87481C5
:100A700008F1A80844452DD0DFF86C81444529D001
:100A8000DFF8648108F11408444523D0DFF8588169
:100A900008F1280844451DD0DFF84C8108F13C08D6
:100AA000444517D0DFF8408108F15008444511D083
:100AB000DFF8348108F1640844450BD0DFF8288161
:100AC00008F17808444505D0DFF81C8108F18C084E
:100AD000444509D1D0E91948C4F80480C46E1CB15A
:100AE000D0E91C48C4F8048004684C452ED0B442B8
:100AF0002CD054452AD0BC4228D0374E183EB442A0
:100B000024D05C4522D0644520D074451ED0354E9B
:100B1000B4421BD0334E1836B44217D0314E303663
:100B2000B44213D02F4E4836B4420FD02D4E60360B
:100B3000B4420BD02B4E7836B44207D0294E9036B3
:100B4000B44203D0274EA836B44215D190F85C6069
:100B50003F2406F01F06B440AC600468256825F405
:100B6000802525602EE09A600068C160BDE8F08FA6
:100B700099600068C260F9E71B4EB4421BD01A4E60
:100B80001436B44217D0184E2836B44213D0164E3D
:100B90003C36B4420FD0144E5036B4420BD0124EF5
:100BA0006436B44207D0104E7836B44203D00E4EAD
:100BB0008C36B442DAD190F85C60012406F01F064E
:100BC000B4406C60046863608368402B0368CFD1D5
:100BD000C9E700001000024088000240A000024067
:100BE000B800024010040240085402587047000048
:100BF00003B40848FF21F3229DF800300370C82396
:100C000041708170C27004220249019802B004F060
:100C100076B8000018000024486070472DE9F041C4
:100C20000D4604461D482821FFF798FCFF271B4866
:100C3000002211E004EBC20314F832C000F822C015
:100C4000561CB3F802C000EB8201F2B281F801C079
:100C50005B881B0A8B70CF70AA42EBD3104EAD009D
:100C600035803088282801D92820308032880B49E7
:100C7000A1F15000FFF740FCFFF7E4FC07492A46CA
:100C8000606804F095F820B1B168491CB160BDE816
:100C9000F0817168491C7160F9E7000014010024BB
:100CA0000C0000242DE9F0410D4604461D48282182
:100CB000FFF754FCFF271B48002211E004EBC2039E
:100CC00014F832C000F822C0561CB3F802C000EB82
:100CD0008201F2B281F801C05B881B0A8B70CF7071
:100CE000AA42EBD3104EAD0035803088282801D9B8
:100CF0002820308032880B49A1F17800FFF7FCFBF7
:100D0000FFF7A0FC07492A46606804F051F820B1BB
:100D1000B168491CB160BDE8F0817168491C71601F
:100D2000F9E700003C0100240C00002472B6FEE745
:100D3000054805490839026842F002020260086865
:100D40008004FCD5704700000C4802582DE9F84F8C
:100D5000044601F0C7FA00903CB194F8350002282F
:100D600006D0802161650020E4E00120BDE8F88F15
:100D7000C74DC74EC649183520683036DFF8148392
:100D8000DFF814938842DFF814A3DFF814B32ED0F1
:100D9000A8422CD0B0422AD0404528D0484526D081
:100DA000504524D0584522D0BD4A183290421ED01A
:100DB000BC4A90421BD0BB4A1832904217D0B94A65
:100DC0003032904213D0B74A483290420FD0B54AE1
:100DD000603290420BD0B34A7832904207D0B14A89
:100DE0009032904203D0AF4AA832904209D10268B3
:100DF00022F01E0202602068426922F080024261F5
:100E000003E0026822F00E02026027688F42384633
:100E10004DD0A8424BD0B04249D0404547D048457C
:100E200045D0504543D0584541D09D4A1832904254
:100E30003DD09C4A90423AD09A4A1832904236D0DD
:100E4000984A3032904232D0964A483290422ED060
:100E5000944A603290422AD0924A7832904226D008
:100E6000904A9032904222D08E4AA83290421ED0B0
:100E70008D4A90421BD08C4A1432904217D08A4A35
:100E80002832904213D0884A3C3290420FD0864A92
:100E9000503290420BD0844A6432904207D0824A4A
:100EA0007832904203D0804A8C32974204D1206E2F
:100EB000026822F48072026075492068884228D056
:100EC000A84226D0B04224D0404522D0484520D068
:100ED00050451ED058451CD071491831884218D051
:100EE0007049884215D06F491831884211D06D4938
:100EF000303188420DD06B494831884209D0694968
:100F00006031884205D067497831884201D065490F
:100F10009031016821F0010101600EE001F0E2F979
:100F20000099401A052808D9202262650321002073
:100F300084F8351084F8340017E73868C007EDD11D
:100F4000534A0121206890422ED0A8422CD0B042B2
:100F50002AD0404528D0484526D0504524D0584571
:100F600022D04F4B183398421ED04E4B98421BD084
:100F70004C4B1833984217D04A4B3033984213D019
:100F8000484B483398420FD0464B603398420BD0C1
:100F9000444B7833984207D0424B9033984203D069
:100FA000404BA833984208D194F85C703F23A06D61
:100FB00007F01F07BB40836007E094F85C30A06D2A
:100FC00003F01F0301FA03F34360206890424DD001
:100FD000A8424BD0B04249D0404547D0484545D0C3
:100FE000504543D0584541D02D4A183290423DD00B
:100FF0002C4A90423AD02B4A1832904236D0294A95
:101000003032904232D0274A483290422ED0254A80
:10101000603290422AD0234A7832904226D0214A28
:101020009032904222D01F4AA83290421ED01E4ACF
:1010300090421BD01C4A1432904217D01A4A2832D0
:10104000904213D0184A3C3290420FD0164A503288
:1010500090420BD0144A6432904207D0124A783240
:10106000904203D0104A8C3290420BD1D4E919023D
:101070004260E06E30B1026822F480720260D4E90E
:101080001C024260002084F8351084F834006DE6BC
:1010900010000240580002407000024088000240E8
:1010A000A000024010040240085402582DE9F05FED
:1010B00028B190F83510022904D080214165012023
:1010C000BDE8F09F904C904B0168183C18338E4A55
:1010D000DFF83C92A1428D4CDFF838E28E4FDFF80A
:1010E0003CB2DFF83CA28F4D8F4E31D091422FD0D1
:1010F00099422DD0A1422BD0494529D0714527D006
:10110000B94225D0DFF810C20CF1180C61451FD090
:10111000DFF808C2ACF1600C614519D0DFF8FCC102
:10112000ACF1480C614513D0DFF8F0C1ACF1300CE4
:1011300061450DD0DFF8E4C1ACF1180C614507D072
:10114000594505D0514503D0A94201D0B1422CD117
:10115000DFF8B4C14FF0040880F83580ACF1180C0A
:1011600061451DD091421BD0994219D0A14217D0A0
:10117000494515D0714513D0B94211D06648183091
:1011800081420DD065486038814209D063484838B3
:10119000814205D061483038814201D05F4818381B
:1011A000086820F001000860ABE0D1F800C02CF026
:1011B0000E08DFF854C1C1F80080ACF1180C0168CA
:1011C000614527D0914225D0994223D0A14221D018
:1011D00049451FD071451DD0B9421BD0DFF838C139
:1011E0000CF1180C614515D0DFF830C1ACF1600C82
:1011F00061450FD0DFF824C1ACF1480C614509D03E
:10120000DFF818C1ACF1300C614503D0DFF80CC138
:10121000ACF1180CD1F800C02CF0010CC1F800C0E2
:10122000DFF8E4804FF0010C0168A8F1180841458F
:1012300046D0914244D0994242D0A14240D0494543
:101240003ED071453CD0B9423AD0334A183291422F
:1012500036D0324A603A914232D0304A483A9142CE
:101260002ED02E4A303A91422AD02C4A183A914236
:1012700026D0594524D0514522D0A94220D0B14290
:101280001ED02A4A91421BD0284A1432914217D0CC
:10129000264A2832914213D0244A3C3291420FD040
:1012A000224A503291420BD0204A6432914207D0F8
:1012B0001E4A7832914203D01C4A8C32914218D196
:1012C000016E0A6822F480720A6090F85C20816DD9
:1012D00002F01F020CFA02F24A60D0E919124A60C9
:1012E000C16E31B10A6822F480720A60D0E91C1222
:1012F0004A600022016D80F835C080F8342001B1C9
:1013000088470020DCE60000280002405800024028
:101310007000024088000240A000024070040240B9
:1013200088040240A0040240B80402400854025855
:10133000406D70472DE9FC5F0446F74E0020DFF852
:10134000D88300904FF41652F44808F11808A56DA0
:10135000DFF8C493DFF8C0A3016809F13009206801
:101360000AF1480AB1FBF2F1B04201912F68D5F8B9
:1013700000C0DFF8ACB335D04146884232D0484592
:1013800030D050452ED058452CD0E54918318842F0
:1013900028D0E3493031884224D0E149483188429D
:1013A00020D0E04988421DD0DE491831884219D04A
:1013B000DC493031884215D0DA494831884211D0B1
:1013C000DFF860E30EF1600E70450BD0D54A78323D
:1013D000904207D0D34B9033984203D0D149A831E3
:1013E00088427DD194F85C20082102F01F0201FAA6
:1013F00002F23A424AD0B04232D0404530D048455D
:101400002ED050452CD058452AD0C54A183290428B
:1014100026D0C34A3032904222D0C14A483290424C
:101420001ED0C04A90421BD0BE4A1832904217D0FC
:10143000BC4A3032904213D0BA4A483290420FD060
:10144000B84A603290420BD0B64A7832904207D008
:10145000B44A9032904203D0B24AA832904203D1AB
:10146000026802F0040202E0026802F008026AB1B7
:10147000026822F00402026094F85C0000F01F0091
:101480008140A960606D40F00100606594F85C00E7
:10149000012100F01F008140394240D02068B04255
:1014A00034D0404532D0484530D050452ED05845F4
:1014B0002CD09B4A1832904228D0994A3032904220
:1014C00024D0974A4832904220D0964A90421DD06C
:1014D000944A1832904219D0924A3032904200E039
:1014E000AFE113D08F4A483290420FD08D4A60321C
:1014F00090420BD08B4A7832904207D0894A903282
:10150000904203D0874AA83290427DD1406910F0C2
:10151000800F04D0A960606D40F00200606594F80F
:101520005C00042100F01F00814039423ED0206859
:10153000B04232D0404530D048452ED050452CD016
:1015400058452AD0764A1832904226D0744A303212
:10155000904222D0724A483290421ED0714A904244
:101560001BD0704A1832904217D06E4A30329042E7
:1015700013D06C4A483290420FD06A4A603290428F
:101580000BD0684A7832904207D0664A9032904237
:1015900003D0644AA83290424ED1006810F0020F86
:1015A00004D0A960606D40F00400606594F85C00B0
:1015B000102100F01F008140394258D02068B0420D
:1015C00034D0404532D0484530D050452ED05845D3
:1015D0002CD0534A1832904228D0514A303290428F
:1015E00024D04F4A4832904220D04E4A90421DD0DB
:1015F0004C4A1832904219D04A4A3032904215D0A3
:10160000484A4832904200E014E00FD0454A603228
:1016100090420BD0434A7832904207D0414A9032F0
:10162000904203D03F4AA832904207D1006800F0B0
:10163000080006E0006872E70068B7E7006800F09D
:101640000400A0B1A96020680168490304D50068BE
:10165000000308D5A16C07E00168C90503D401683F
:1016600021F008010160216C09B12046884794F8F7
:101670005C00202100F01F008140394279D02068B1
:10168000B04232D0404530D048452ED050452CD0C5
:1016900058452AD0224A1832904226D0204A303269
:1016A000904222D01E4A483290421ED01D4A90429B
:1016B0001BD01C4A1832904217D01A4A303290423E
:1016C00013D0184A483290420FD0164A60329042E6
:1016D0000BD0144A7832904207D0124A903290428E
:1016E00003D0104AA832904203D1006800F01000E5
:1016F00002E0006800F00200B0B3A96094F8350081
:101700000428206801680FD049037ED500680003D3
:101710002BD4616C2AE0000010000240A8000024D5
:10172000700002401004024021F0160101602068A0
:10173000416921F080014161206C08B9A06C20B1A1
:101740002068016821F00801016094F85C303F21B5
:10175000012003F01F0300229940A96084F835009E
:1017600084F83420216D65E003E0E16B09B1204687
:101770008847606D00287DD0606DC00759D0206813
:10178000042184F83510B0422BD0404529D048457B
:1017900027D0504525D0584523D09D49884220D098
:1017A0009B49183188421CD099493031884218D061
:1017B0009849884215D097491831884211D09549E7
:1017C000303188420DD093494831884209D091493F
:1017D0006031884205D08F497831884201D08D49E7
:1017E0009031016821F00101016020680099019A9F
:1017F000491C0091914202D80168C907F6D10068DE
:10180000C00710D003200FE0FFE70168C905ACD482
:1018100003680121002223F01003036084F83510CF
:1018200084F83420A1E7012084F83500002084F8F2
:101830003400E16C00291DD002B02046BDE8F05F05
:101840000847754988421DD073491431884219D020
:1018500071492831884215D06F493C31884211D0F6
:101860006D49503188420DD06B496431884209D0AE
:10187000694900E084E07831884203D066498C31C0
:1018800088427DD194F85C800427016808F01F0825
:1018900007FA08F717EA0C0F009746D04F0744D510
:1018A00000980F04686003D5C8033CD4A16CC1E75D
:1018B000880638D42068B0422DD055496039884216
:1018C00029D0484527D0504525D0584523D05049E8
:1018D000884220D04E49183188421CD04C493031C2
:1018E000884218D04B49884215D04A49183188425D
:1018F00011D04849303188420DD04649483188429C
:1019000009D0704507D0904205D0984203D0414994
:10191000A831884203D1016821F0080102E0016882
:1019200021F004010160216C84E7022707FA08F71F
:1019300017EA0C0F00974ED08F074CD500980F0474
:10194000686003D5C80344D4616C73E7880640D44B
:101950002068B0422FD02E49603988422BD04845AC
:1019600029D0504527D0584525D02949884222D032
:101970002749183188421ED025493031884200E07D
:1019800044E018D02349884215D0224918318842B2
:1019900011D02049303188420DD01E49483188424B
:1019A00009D0704507D0904205D0984203D019491C
:1019B000A831884203D1016821F0140102E00168D6
:1019C00021F00A010160012184F83510002084F81B
:1019D0003400E16B2EE7082202FA08F212EA0C0F3B
:1019E00014D0090712D5016821F00E01016094F8A6
:1019F0005C100120002201F01F0100FA01F1696072
:101A0000606584F8350084F8342012E7BDE8FC9F57
:101A10008800024010040240085402582DE9F05F8B
:101A2000044600F05FFC002C07467DD0E34E022107
:101A300020684FF00308DFF888934FF00005DFF8C7
:101A400084A3B042DFF880B334D0DC4A183290422D
:101A500030D048452ED050452CD058452AD0DA4AAF
:101A60001832904226D0D84A3032904222D0D64AFC
:101A7000483290421ED0D54A90421BD0D34A1832E9
:101A8000904217D0D14A3032904213D0CF4A4832D8
:101A900090420FD0CD4A603290420BD0CB4A783280
:101AA000904207D0C94A9032904203D0C74AA83228
:101AB00090427DD184F83510B04284F834502ED055
:101AC000BE49183188422AD0484528D0504526D0F2
:101AD000584524D0BC491831884220D0BA49303109
:101AE00088421CD0B8494831884218D0B74988424A
:101AF00015D0B6491831884211D0B44930318842E6
:101B00000DD0B2494831884209D0B049603188428D
:101B100005D0AE497831884201D0AC499031016896
:101B200021F00101016008E027E100BF00F0DAFBCD
:101B3000C01B052801D920211CE120680068C007CE
:101B4000F4D104F108002168D4E9053C8E4685C82B
:101B500009681043D4E907281F43636A38439C4F40
:101B600040EA0C001043394040EA0800042B40EAE8
:101B7000010003D1D4E90B121143084395490968C8
:101B80006FF30F01B1F1005F0FD36168A1F129027A
:101B9000052A08D9163A032A05D9083A012A02D992
:101BA0004F39032901D840F48010CEF8000000E03E
:101BB00023E02068676A4069042F20F0070047EAA5
:101BC00000070DD1D4E90A01074349B12046FEF7C9
:101BD000D3FE28B140206065012184F83510CCE0A7
:101BE000206847612046FEF7E5FD94F85C203F2120
:101BF00002F01F029140816054E0774A90421BD06E
:101C0000754B1433984217D0734B2833984213D036
:101C1000714B3C3398420FD06F4B503398420BD0EE
:101C20006D4B6433984207D06B4B7833984203D0A6
:101C3000694B8C3398427DD184F8351084F8345048
:101C4000664B0168A26801EA030E402A73D0802A1D
:101C500072D00022D4E90378D4E9053142EAD702F0
:101C600042EAD8085C4AD4E9077C48EAD30848EA43
:101C7000D10141EAD701524241EA1C11142341EA41
:101C80000E01016020681044B0FBF3F08000E065B5
:101C90002046FEF78FFD94F85C20012102F01F0220
:101CA000914041602068B04257D044491831884281
:101CB00053D0484551D050454FD058454DD042495A
:101CC0001831884249D040493031884245D03E4998
:101CD0004831884241D03D4988423ED03B49183185
:101CE00088423AD039493031884236D03749483174
:101CF000884232D03549603188422ED0334978311C
:101D000088422AD031499031884226D02F49A831C3
:101D1000884222D0304988421FD02F49143188424E
:101D20001BD02D492831884217D02B493C3188429D
:101D300013D002E01DE017E018E027495031884237
:101D40000BD025496431884207D023497831884235
:101D500003D021498C31884229D12046FEF784FDE9
:101D6000A06880280CD00CE0102273E74FF480426A
:101D700070E74021616584F835800120BDE8F09F5F
:101D80006560216E20790860D4E9190141606068BE
:101D9000401E072808D82046FEF7B4FDE06E056017
:101DA000D4E91C01416002E0E56625676567012012
:101DB000656584F835000020E0E70000100002406F
:101DC00040000240580002407000024010040240EF
:101DD0003F8010FE0010005C085402580F00FEFF08
:101DE0002DE9F84F04008C464FF00000009014D00D
:101DF00094F83400012812D094F8355001200021C5
:101E000084F83400012D0CD0C002606501200090E0
:101E100084F834100098BDE8F88F0120FBE7022019
:101E2000F9E78C4D0226206884F83560A8428A4D77
:101E300061658A4E8A4FDFF82C82DFF82C92DFF83A
:101E40002CA2DFF82CB226D0A84224D0B04222D057
:101E5000B84220D040451ED048451CD050451AD02D
:101E6000584518D08349884215D082491831884294
:101E700011D08049303188420DD07E4948318842A6
:101E800009D07C496031884205D07A49783188424E
:101E900001D078499031016821F00101016061466B
:101EA0002046FEF793FD6B49206888422CD0A8425B
:101EB0002AD0B04228D0B84226D0404524D0484548
:101EC00022D0504520D058451ED06A4A90421BD09F
:101ED000684A1832904217D0664A3032904213D086
:101EE000644A483290420FD0624A603290420BD02E
:101EF000604A7832904207D05E4A9032904203D0D6
:101F00005C4AA83290420CD1026822F01E0242F0D4
:101F100016020260206C88B12068026842F0080254
:101F20000BE0026822F00E0242F00A020260206C0E
:101F300020B12068026842F00402026020688842F2
:101F40004BD0A84249D0B04247D0B84245D04045D6
:101F500043D0484541D050453FD058453DD0454AF3
:101F600090423AD0434A1832904236D0414A3032F9
:101F7000904232D03F4A483290422ED03D4A6032A1
:101F800090422AD03B4A7832904226D0394A903249
:101F9000904222D0374AA83290421ED0364A904210
:101FA0001BD0354A1432904217D0334A283290421F
:101FB00013D0314A3C3290420FD02F4A50329042D7
:101FC0000BD02D4A6432904207D02B4A783290428F
:101FD00003D0294A8C3290420DD1206E0268D20380
:101FE00003D5026842F480720260E06E18B10268A4
:101FF00042F4807202602068884226D0A84224D031
:10200000B04222D0B84220D040451ED048451CD016
:1020100050451AD0584518D01649884215D0154950
:102020001831884211D01349303188420DD01149FE
:102030004831884209D00F496031884205D00D49A6
:102040007831884201D00B499031016841F001019B
:102050000160DFE61000024028000240400002401C
:10206000580002407000024088000240A000024078
:10207000B8000240100402400854025870B50446EB
:1020800000F030F90546601C02D004480078044492
:1020900000F028F9401BA042FAD370BD9C00002438
:1020A0002DE9F84F03247D4D00234FF001094FF037
:1020B000B04B4FF00F0AE9E009FA03F73A4076D047
:1020C0000E7906F00306012E01D0022E18D1D0F8A9
:1020D00008C04FEA430ECE6804FA0EF82CEA080C4A
:1020E00006FA0EF646EA0C068660D0F804C00E79B1
:1020F0002CEA070CC6F300169E4046EA0C06466022
:102100000E79F643B6070BD0C6684FEA43088F68CE
:1021100004FA08FC26EA0C0607FA08F73743C760FA
:102120000E7906F00306022E12D1DE080F694FEA7F
:10213000437C00EB8606B646366A4FEADC6C0AFA48
:102140000CF807FA0CF726EA08063743CEF8207099
:102150000F7906684FEA430807F0030704FA08FC02
:1021600007FA08F726EA0C06374307604E6816F4AC
:10217000403F1CD04A4E376847F002073760366848
:102180009F0706F00206009623F0030606F1B0460C
:10219000B6463F0FD6F80864DFF808810AFA07FC54
:1021A000404526EA0C0603D14FF0000C41E06CE0FC
:1021B000DFF8F4C0604502D14FF0010C39E0DFF8E0
:1021C000ECC0604502D14FF0020C32E0DFF8E0C015
:1021D000604502D14FF0030C2BE0DFF8D8C060451A
:1021E00002D14FF0040C24E0DFF8CCC0604502D1EE
:1021F0004FF0050C1DE0DFF8C4C0604502D14FF080
:10220000060C16E0DFF8B8C0604502D14FF0070CAD
:102210000FE0DFF8B0C0604502D14FF0080C08E0D5
:10222000DFF8A4C0604502D14FF0090C01E04FF087
:102230000A0C0CFA07FC4CEA060CCEF808C44F68EE
:10224000DBF80060FF0226EA020600D516435F466F
:10225000CBF80060D1F804C0DBF804605FEA8C2C96
:1022600026EA020600D516437E606E684F6826EAAD
:102270000206BF0300D516436E602E684F6826EA3B
:102280000206FF0300D516432E605B1C0A6832FA73
:1022900003F67FF411AFBDE8F88F0000800000580E
:1022A000F444025800000258000402580008025882
:1022B000000C02580010025800140258001802586E
:1022C000001C025800200258002402580AB1816103
:1022D00070470904FBE7000001480068000C7047E4
:1022E0000010005C01488068704700009C000024DA
:1022F0000248816802781144816070479C00002484
:10230000032010B500F0D4F801F0AEF80F4A1049E0
:1023100014681368C4F3032203F00F038A5CC95CDA
:1023200002F01F0201F01F01D0400A4A20FA01F119
:102330001160094908600F2000F010F808B1012071
:1023400010BD00F079F8002010BD000018440258BC
:10235000B47D0008AC000024A800002470B50D4D29
:1023600004462878A0B14FF47A71B1FBF0F00A4925
:102370000968B1FBF0F001F0D4FB48B9102C07D28A
:1023800000222146501E00F073F800206C6070BDE2
:10239000012070BD9C000024A8000024154BF0B55E
:1023A000083B427813491A600B680A1F23F00103A7
:1023B0000B6043681360057BC67A827A437B2D07E6
:1023C000847B45EA0665C77B90F809C0067A90F8D9
:1023D00000E045EAC24040EA834040EA444040EA27
:1023E000074040EA0C2040EA460040EA0E00086040
:1023F000F0BD0000A0ED00E0BFF35F8F04480021B6
:102400000368034A23F4803303607032116070471D
:1024100024ED00E0074A40F00100064970321060E8
:10242000086840F480300860BFF34F8FBFF36F8FB0
:102430007047000024ED00E0054808B5016841F050
:1024400002010160006800F00200009008BD000079
:10245000F4440258002809DB410900F01F028900FA
:10246000012001F1E0219040C1F800017047000017
:102470000E4BF0B41B680D46C3F30223C3F10706ED
:10248000042E00D90426191D072901D2002300E0DB
:10249000DB1E012404FA06F19C40491E2940641EFB
:1024A000994014402143F0BC05F03FB90CED00E029
:1024B000064900F0070210B54FF6FF040868044B08
:1024C000204040EA02201843086010BD0CED00E0F7
:1024D0000000FA05134970B50A68D243520705D5C2
:1024E000096801F00701814213D118E00A6822F05F
:1024F000070202430A60FFF7F5FE0A4D4FF47A76B1
:102500000446083D07E000BFFFF7ECFE001BB042A9
:1025100001D9012070BD2868C0438004F4D4002094
:1025200070BD00000C48025810B500F057FF054977
:102530000968054AC1F30211515C01F01F01C8404E
:1025400010BD000020440258B47D0008494930B550
:10255000484C0B1D0A68143409681D68246802F091
:102560000303C5F30012C1F30531C4F3CC04002901
:1025700014FB02F200EE102AF8EE400A75D03F4A32
:102580009FED3D1AB7EE000A6BB1DFED3D1A012B4E
:1025900001D0022B64D002EE101A1168F8EE422A24
:1025A00081EEA22A21E0334C283C23689B0612D5F9
:1025B000344B246801EE901A1168C4F3C104F8EE9C
:1025C000612AE34001EE903AC1F30801F8EE611A86
:1025D00081EEA22A0BE001EE901ADFED2B2A00BF5C
:1025E000F8EE611A116882EEA12AC1F3080101EE2A
:1025F000901A1168F8EE611A40EE811A71EE800AA5
:1026000062EE200AC1F3462101EE101AB8EE411A1B
:1026100031EE001AC0EE811ABCEEE11A80ED001A0C
:102620001168C1F3064101EE101AB8EE411A31EEFD
:10263000001AC0EE811ABCEEE11A80ED011A116891
:10264000C1F3066101EE101AB8EE411A31EE000A2C
:1026500080EE801ABCEEC10A80ED020A30BD04E0B3
:1026600001EE901ADFED092ABAE70021016041600E
:102670008160F3E7284402580000003938440258CA
:102680000024744A0090D0030024744C001B374C83
:10269000494930B5484C0B1D0A681C3409681D684F
:1026A000246802F00303C5F30022C1F30551C4F30B
:1026B000CC04002914FB02F200EE102AF8EE400AC6
:1026C00075D03F4A9FED3D1AB7EE000A6BB1DFEDC2
:1026D0003D1A012B01D0022B64D002EE101A1168B2
:1026E000F8EE422A81EEA22A21E0334C283C2368EE
:1026F0009B0612D5344B246801EE901A1168C4F37E
:10270000C104F8EE612AE34001EE903AC1F30801FA
:10271000F8EE611A81EEA22A0BE001EE901ADFEDCD
:102720002B2A00BFF8EE611A116882EEA12AC1F3CC
:10273000080101EE901A1168F8EE611A40EE811A54
:1027400071EE800A62EE200AC1F3462101EE101AF2
:10275000B8EE411A31EE001AC0EE811ABCEEE11A51
:1027600080ED001A1168C1F3064101EE101AB8EEAF
:10277000411A31EE001AC0EE811ABCEEE11A80ED6A
:10278000011A1168C1F3066101EE101AB8EE411A80
:1027900031EE000A80EE801ABCEEC10A80ED020A1A
:1027A00030BD04E001EE901ADFED092ABAE70021FE
:1027B000016041608160F3E728440258000000395D
:1027C000404402580024744A0090D0030024744C02
:1027D000001B374C2DE9FE4F0546DFF8E48350F827
:1027E000081B0024F64FC943019005F12800264636
:1027F00008F12408009008011DD4A86E50B1B0F56E
:10280000801F0CD0B0F5001F0ED0B0F5401F1ED0B9
:1028100001240FE0386840F40030386017E0019878
:10282000022103F019FC03E00098022103F0A4FC4C
:1028300004000CD026462888C043C00523D4A86DC8
:1028400005281ED2DFE800F00C11161B1B00AA6E33
:10285000D8F8001021F440111143C8F80010EAE73D
:10286000386840F40030386009E00198002103F036
:10287000F3FB03E00098002103F07EFC044674B1F2
:1028800000E0012426462888C043800528D4E86D4E
:1028900080281ED00CDC90B140280ED114E0AA6D27
:1028A000D8F8001021F007011143C8F80010EAE73A
:1028B000C02813D0B0F5807F10D001240FE0386815
:1028C00040F40030386009E00198002103F0C4FBB7
:1028D00003E00098002103F04FFC04469CB126461B
:1028E0002888DFF8DC92C04309F12C0940052CD47C
:1028F000D5F8A800B0F5800F20D00DDCA0B1B0F560
:10290000001F0FD115E0EA6DD8F8001021F4E07136
:102910001143C8F80010E3E7B0F5C00F13D0B0F5CD
:10292000000F10D001240FE0386840F40030386008
:1029300009E00198002103F08FFB03E000980021DB
:1029400003F01AFC04467CB126462888C0430005E3
:102950002DD4D5F8AC00B0F1007F21D00EDCA8B1A9
:10296000B0F1807F10D116E0D5F8A820D9F800107A
:1029700021F460011143C9F80010E6E7B0F1407F8F
:1029800013D0B0F1806F10D001240FE0386840F40C
:102990000030386009E00198002103F05DFB03E09E
:1029A0000098002103F0E8FB044674B1264628682D
:1029B000C04380011FD4E86CD8B110280FD0202864
:1029C00012D0302815D0012414E0D5F8AC20D9F865
:1029D000001021F0E0611143C9F80010E7E7386802
:1029E00040F40030386004E00198022103F034FB29
:1029F000044674B126462888C043C0042BD4286EF0
:102A0000B0F5005F20D00DDCA0B1B0F5805F0FD134
:102A100015E06B48EA6C2030016821F03001114369
:102A20000160E8E7B0F5405F13D0B0F5804F10D0FB
:102A300001240FE0386840F40030386009E0019864
:102A4000002103F009FB03E00098002103F094FB50
:102A500004468CB126462888C043800429D4686E79
:102A6000B0F5403F23D010DC08B3B0F5803F14D060
:102A7000B0F5003F0FD115E02A6ED8F8001021F410
:102A8000E0411143C8F80010E5E7B0F5802F0ED003
:102A9000B0F5A02F0BD001240AE00198012103F02A
:102AA000DBFA03E00098012103F066FB044694B1D1
:102AB00026462888C04340042AD4D5F8B000B0F197
:102AC000405F23D010DC08B3B0F1805F14D0B0F1C8
:102AD000005F0FD115E06A6ED8F8001021F4E021F4
:102AE0001143C8F80010E4E7B0F1804F0ED0B0F108
:102AF000A04F0BD001240AE00198012103F0ACFAA9
:102B000003E00098012103F037FB044674B1264628
:102B10002888C04300041FD4286FD8B1B0F1805F6B
:102B20000ED0B0F1005F10D0012414E0D5F8B02031
:102B3000D9F8001021F0E0411143C9F80010E7E78F
:102B4000386840F40030386004E00198012103F057
:102B500083FA044674B126462868C043C0011ED4D7
:102B6000A86CD0B101280ED0022811D0032814D0AF
:102B7000012413E02A6FD8F8001021F040511143CE
:102B8000C8F80010E8E7386840F40030386004E026
:102B90000198022103F060FA0446ACB12646286889
:102BA000DFF81CB0C043ABF11C0B400252D4054807
:102BB000016841F480710160FFF794FB824611E0E7
:102BC0002C44025800480258FA48AA6C016821F0C7
:102BD000030111430160E2E7FFF784FBA0EB0A0069
:102BE000642835D8F4480068C005F5D58CBBDFF8FB
:102BF000C4A3B5F8B4100AF1240ADAF8000001F40D
:102C0000407100F44070884211D0DAF80010DAF810
:102C1000002021F4407142F48032CAF80020DAF832
:102C2000002022F48032CAF80020CAF80010D5F83B
:102C3000B400B0F5807F1AD1FFF754FB029012E088
:102C4000FFF750FB0299411A41F2883081420AD9BC
:102C5000032426462878DFF85CA3C0430AF1080A5B
:102C6000C00721D03CE0DAF800008007E8D5D5F8AD
:102C7000B410C1F30120032858460DD0016821F497
:102C80007C510160B5F8B420DAF80010C2F30B02F1
:102C90001143CAF80010DDE7C84A036802EA1112BE
:102CA00023F47C511143ECE7E86F182816D005DCBB
:102CB000A0B1082808D0102804D10AE020280DD09F
:102CC00028280BD001240AE00198012103F0C4F95F
:102CD00003E00098012103F04FFA044664B1264650
:102CE0002878C04380071ED4A86F062819D2DFE8D1
:102CF00000F0160C11161616EA6FDAF8001021F023
:102D000038011143CAF80010EAE70198012103F0E5
:102D1000A3F903E00098012103F02EFA04467CB1E8
:102D200000E0012426462878C04340071FD4D5F888
:102D30009400062819D2DFE800F0160C11161616BA
:102D4000AA6FDAF8001021F007011143CAF8001049
:102D5000E9E70198012103F07FF903E000980121E0
:102D600003F00AFA0446A4B100E0012426462878BC
:102D7000C04380062BD4D5F89000B0F1405F24D03A
:102D800011DC10B3B0F1805F15D0B0F1005F10D14D
:102D900016E0D5F89420D9F8001021F0070111436E
:102DA000C9F80010E3E7B0F1804F0ED0B0F1A04FAA
:102DB0000BD001240AE00198002103F04DF903E053
:102DC0000098022103F0D8F9044694B126462878E9
:102DD000C04340062BD4D5F89C00B0F5406F24D0FA
:102DE00011DC10B3B0F5806F15D0B0F5006F10D1C5
:102DF00016E0D5F89020DAF8001021F0E0411143F8
:102E0000CAF80010E3E7B0F5805F0ED0B0F5A05F20
:102E10000BD001240AE00198002103F01DF903E022
:102E20000098022103F0A8F9044694B126462878B8
:102E3000C04300062BD4D5F8A000B0F5C04F24D075
:102E400011DC10B3B0F5005F15D0B0F5804F10D194
:102E500016E0D5F89C20D9F8001021F4E051114378
:102E6000C9F80010E3E7B0F5004F0ED0B0F5204FE1
:102E70000BD001240AE00198002103F0EDF803E0F3
:102E80000098022103F078F9044654B126462878C8
:102E9000C04300071ED4D5F88400B0F5805F0AD087
:102EA0000FE0D5F8A020D9F8001021F460411143BB
:102EB000C9F80010EBE70098022103F05DF900B1BA
:102EC0000126D5F88420DAF8001021F4405111438E
:102ED000CAF800102878C043C00613D4D5F898006B
:102EE000B0F5807F05D10098022103F045F900B1CB
:102EF0000126D5F89820D9F8001021F4407111432B
:102F0000C9F800102868C043000316D4D5F8A400FF
:102F100038B1B0F5803F09D0B0F5003F0BD00124A7
:102F20000AE00198002103F097F803E000980221DD
:102F300003F022F904468CB126462868C0434003BA
:102F400022D4D5F88800B0F5801F11D0B0F5001F4D
:102F500013D0B0F5401F15D0012414E0D5F8A420FB
:102F6000D9F8001021F440311143C9F80010E4E70A
:102F7000386840F40030386004E00098012103F024
:102F8000FBF804465CB126462868C043C00323D43E
:102F9000286DA8B1B0F5803F17D001241BE0D5F80B
:102FA0008820DAF8001021F440111143CAF800100B
:102FB000EAE700004C44025800480258CFFFFF00E7
:102FC000386840F40030386004E00198022103F0D2
:102FD00043F80446E4B126462868C043800005D47F
:102FE0000098022103F0C8F800B101262868C04308
:102FF00080031BD4D5F88000B0B1B0F5807F0FD02E
:10300000B0F5007F10D0B0F5407F0DD001240CE06A
:103010005A482A6D016821F4803111430160DBE7D1
:10302000386840F400303860ECB326462868C04366
:10303000C00207D46A6FD8F8001021F00041114394
:10304000C8F800102868C043C00008D4D5F8B820DC
:10305000DBF8001021F480411143CBF80010286800
:10306000C043800207D4EA6ED8F8001021F08071C6
:103070001143C8F800102868C04340000CD4DBF8A6
:10308000001021F40041CBF80010DBF80010D5F857
:10309000BC201143CBF800102868C04308D437483F
:1030A0006A6D016800E018E021F0405111430160B1
:1030B0002868C043000208D4D5F88C20DAF8001044
:1030C00021F440011143CAF8001028790024C043BC
:1030D00000F0010020430AD00FE0D5F88020DAF894
:1030E000001021F440711143CAF800109EE70198C6
:1030F000002102F0B1FF00B106462879C04300F07C
:103100000200204305D10198012102F0A5FF00B182
:1031100006462879C04300F00400204305D10198F9
:10312000022102F099FF00B106462879C04300F061
:103130000800204305D10098002103F01DF800B1DC
:1031400006462879C04300F01000204305D10098BE
:10315000012103F011F800B106462879C04300F0C0
:103160002000044304D10098022103F005F800B9BF
:1031700016B10120BDE8FE8F0020FBE74C44025849
:103180002DE9F05F04000F467ED0DFF83882D8F8D2
:10319000000000F00F00B8420CD2D8F8001021F067
:1031A0000F013943C8F80010D8F8000000F00F00F4
:1031B000B84269D12078844D40070AD52069296832
:1031C00001F07001884204D9296821F0700101439F
:1031D000296020787C4E361D00070AD56069316869
:1031E00001F07001884204D9316821F07001014377
:1031F00031602078C0060AD5A069316801F4E06129
:10320000884204D9316821F4E061014331602078BB
:10321000DFF8B4B180060BF1080B0CD5E169584614
:10322000DBF8002002F07002914204D9026822F01B
:1032300070020A430260207880070AD5E068296896
:1032400001F00F01884204D9296821F00F010143E0
:1032500029602078C0073ED05B49A26828681839E9
:1032600020F47060104328606068022818D003289A
:1032700019D00968012819D0490700294ADADFF86E
:1032800048A1AAF1080A00E044E0DAF8002022F0A0
:1032900007020243CAF80020FFF724F8814612E033
:1032A00009688903E9E709688901E6E7C905E4E7F0
:1032B000FFF718F8A0EB090141F28830814202D9EA
:1032C0000320BDE8F09F6168DAF8000000F03800E4
:1032D000B0EBC10FECD1207880070AD5E0682968EF
:1032E00001F00F01884204D2296821F00F01014347
:1032F0002960D8F80010404601F00F01B9420BD9FF
:10330000016821F00F0139430160006800F00F00EF
:10331000B84201D00120D4E7207840070AD52069BF
:10332000296801F07001884204D2296821F07001F7
:1033300001432960207800070AD56069316801F0EF
:103340007001884204D2316821F07001014331607C
:103350002078C0060AD5A069316801F4E06188428E
:1033600004D2316821F4E0610143316020788006A5
:103370000CD5E1695846DBF8002002F0700291425A
:1033800004D2026822F070020A43026000F06CF876
:103390000E492A682B68C2F3032203F00F038A5CEC
:1033A000C95C02F01F0201F01F01D040084A20FA58
:1033B00001F111600749086007480068BDE8F05F47
:1033C000FEF7CCBF0020005218440258B47D00081C
:1033D000AC000024A8000024A000002430B500F0B8
:1033E00043F80B4A0B490C4B15681468C5F30322CC
:1033F00004F00F048A5C095D02F01F0201F01F0156
:10340000D040064A20FA01F119601060084630BD2C
:1034100018440258B47D0008AC000024A800002421
:1034200000B5FFF7DBFF05490968054AC1F3021142
:10343000515C01F01F01C84000BD00001C4402584F
:10344000B47D000800B5FFF7C9FF05490968054AC2
:10345000C1F30221515C01F01F01C84000BD000012
:103460001C440258B47D0008454970B545480968B8
:10347000434B103B11F0380208D00111082A03D049
:10348000102A0BD0182A0BD0084670BD196889067F
:10349000FBD51968C1F3C101C84070BD3A4870BD81
:1034A0003749374D18310C1D24350A6809682668DC
:1034B0002D6802F0030406F00102C1F30511C5F303
:1034C000CC0515FB02F200EE102AB8EE400AE9B373
:1034D0002F4ADFED2E0AB7EE001A6CB1DFED2D1A80
:1034E000012C01D0022C43D002EE101A1068F8EE25
:1034F000422A81EEA22A1EE01C68A40611D51B6890
:1035000001EE901A1168C3F3C103F8EE612AD840A6
:1035100001EE900AC1F30800F8EE611A81EEA22ACA
:103520000BE001EE901ADFED1C2A00BFF8EE611AE5
:10353000106882EEA12AC0F3080001EE900AF8EEAE
:10354000611A40EE201A31EE810A00E015E022EE09
:10355000000A1068C0F34620401C00EE900AF8EE06
:10356000600A80EE201ABCEEC10A10EE100A70BD8F
:1035700001EE901ADFED092AD8E7002070BD0000A7
:10358000104402580090D003006CDC0200000039A7
:10359000304402580024744A0024744C001B374CF9
:1035A0002DE9F05F04007DD0FF4F2078FE4D1837E5
:1035B000DFF8F493103DC00748D0D9F8000039680F
:1035C00000F03800102815D0182803D101F00300AE
:1035D00002280FD06068B0F5803F12D010B1B0F56E
:1035E000A02F18D0286820F480302860286820F4A4
:1035F000802009E02868800328D560680028D2D0A0
:1036000024E0286840F480302860606888B1FEF7C4
:1036100069FE064609E0286840F480202860F0E74B
:10362000FEF760FE801B64286FD828688003F7D5FA
:103630000CE0FEF757FE064605E000BFFEF752FE1F
:10364000801B6428F0D828688003F7D4207841F2E2
:103650000308D54E0C3E800769D5D9F800003968BB
:1036600010F038000ED0182801D188070AD0E06881
:1036700090B3296821F0190101432960FEF732FE59
:10368000824631E02868400702D5E06800288AD0E9
:10369000E168286820F0190008432860FEF722FE40
:1036A000824607E0DFE000BFFEF71CFEA0EB0A0049
:1036B0000228B9D828684007F6D500BFFEF70CFEEF
:1036C00040451BD82069402812D0316821F47C3154
:1036D00041EA003030602AE018E000BFFEF702FE49
:1036E000A0EB0A0002289FD828684007F6D5E5E736
:1036F000306820F47C3040F40030EBE7207C316807
:1037000021F0FE4141EA0060E4E70DE1286820F085
:1037100001002860FEF7E6FD824605E0FEF7E2FDC7
:10372000A0EB0A0002288DD828684007F6D420783C
:10373000C0065DD5D9F80000DFF86CB2396800F03A
:103740003800ABF1040B082810D0182803D101F081
:10375000030001280AD0E0690028286838D040F02A
:1037600080002860FEF7BEFD824623E02868C00581
:1037700023D5E069802876D11FE0206A202821D057
:10378000316821F0F84141EA8060306030E000BFEC
:1037900094F82010DBF8002022F07C5242EA01610C
:1037A000CBF8001024E000BFFEF79CFDA0EB0A0060
:1037B000022898D82868C005F6D5FEF78DFD40454B
:1037C000E6D8DAE7306820F0F84040F08040DCE7E7
:1037D00020F080002860FEF785FD064605E000BF6A
:1037E000FEF780FD801B02289DD82868C005F7D40D
:1037F0002078000729D56C4861696430002980462B
:10380000016811D041F001010160FEF76BFD064631
:1038100005E000BFFEF766FD801B0228C9D8D8F876
:1038200000008007F6D510E021F001010160FEF7ED
:1038300059FD064605E000BFFEF754FD801B022837
:1038400072D8D8F800008007F6D42078800623D5F7
:10385000A0690028286810D040F480502860FEF746
:1038600041FD064605E036E1FEF73CFD801B0228DF
:103870005AD828688004F7D50EE020F480502860DC
:10388000FEF730FD064604E0FEF72CFD801B022803
:103890004AD828688004F7D4207840074FD5DFF84D
:1038A0000C81D8F8001041F48071C8F80010FEF7C0
:1038B00019FD064605E000BFFEF714FD801B6428D5
:1038C00032D8D8F80000C005F6D5374EA06860366B
:1038D00001280AD008B1052813D0306820F0010073
:1038E0003060306820F0040002E0306840F00100F1
:1038F0003060A06841F2883A90B1FEF7F3FC804650
:103900000AE0306840F004003060EEE7FEF7EAFCC1
:10391000A0EB0801514507D830688007F6D50EE0C6
:10392000FEF7E0FC804607E084E000BFFEF7DAFC2B
:10393000A0EB080151457DD830688007F6D4606A55
:10394000B0B3DFF86480D9F8001008F120084FF612
:10395000F87B08F10409C1F3C2010329A8F1040AA4
:1039600069D00228286820F08070286003D0FEF714
:10397000B9FC044684E0FEF7B5FC064605E000BF4E
:10398000FEF7B0FC801B022877D828688001F7D4A6
:10399000E26A40F2F331386854F8283F884340EA3D
:1039A00002101843386004E01044025800480258DE
:1039B000B5E0217B434622894FF4FE0C208A4FF06C
:1039C000FE474902267D521E401EA1F50071C2F33A
:1039D00008088AB2761E0CEA004042EA0802024356
:1039E000504607EA06610A431A60DAF8002022F01E
:1039F0000102CAF80020D9F80020266A22EA0B0248
:103A000042EAC602C9F80020DAF80010A26921F0E3
:103A10000C011143CAF800100168E26921F00201AB
:103A200011430160016841F480310160016841F493
:103A3000003101E021E027E00160016841F48021CC
:103A40000160016841F001010160286840F0807068
:103A50002860FEF747FC044605E000BFFEF742FC85
:103A6000001B022809D828688001F7D557E000BF5D
:103A7000FEF738FC001B022802D90320BDE8F09FA6
:103A800028688001F4D44AE039680128D8F8000099
:103A900021D0A26A01F0030393421CD1E26AC1F370
:103AA00005118A4217D1216BC0F30802491E8A42D0
:103AB00011D1616BC0F34622491E91420BD1A16B1B
:103AC000C0F30642491E914205D1E16BC0F3066086
:103AD000491E814201D00120D0E7A16C4E46D9F8A1
:103AE0000000C0F3CC00814219D0DAF8000055463E
:103AF00020F00100CAF80000FEF7F4FB4FEA0007CF
:103B0000FEF7F0FBB842FBD0A26C306820EA0B0055
:103B100040EAC2003060286840F0010028600020C0
:103B2000ACE7401EB0F1807F10B501D3012010BD7D
:103B30004FF0E02460610F21601703F0F6FD0020D4
:103B4000A0610721216110BD7047704770470000D8
:103B5000F0B590F83C20012A3BD01F4E012480F89C
:103B60003C40022280F83D2002681C4D5368B2425E
:103B7000D2F808C001D0AA4203D14F6823F47003E1
:103B80003B430F6823F070031F4357600268B24243
:103B900013D0B2F1804F10D0114B9A420DD0114B7F
:103BA0009A420AD0104B9A4207D0AA4205D00F4B36
:103BB0009A4202D00E4B9A4204D189682CF08003BD
:103BC00019439160002180F83D4080F83C10084680
:103BD000F0BD0220F0BD00000000014000040140E3
:103BE0000004004000080040000C004000180040A5
:103BF0000040014010B5040003D094F83D0010B11E
:103C000007E0012010BD002084F83C00204600F0B1
:103C100023F8022084F83D002068211D02F0A2FC58
:103C2000012084F8480084F83E0084F83F0084F8BE
:103C3000400084F8410084F8420084F8430084F88E
:103C4000440084F8450084F8460084F8470084F86E
:103C50003D00002010BD000008B501681E488142EB
:103C60000FD11E48016841F0080101600068002280
:103C7000114600F0080000903220FEF7F9FB3220D8
:103C800024E01648164A083091420ED1016841F4EA
:103C90000031016000680022114600F400300090FD
:103CA0007520FEF7E5FB752010E00E4A914211D118
:103CB000016841F48021016000680022114600F48F
:103CC000802000907620FEF7D3FB7620BDE80840E8
:103CD000FEF7C0BB08BD0000000C0040E8440258DD
:103CE000004401400048014090F83D10012901D0F6
:103CF00001207047174A022180F83D100168CB6807
:103D000043F00103CB600068904214D0B0F1804FC3
:103D100011D0114988420ED0104988420BD0104969
:103D2000884208D00F49884205D00F49884202D006
:103D30000E49884207D181680D4A1140062906D0F4
:103D4000B1F5803F03D0016841F00101016000201E
:103D500070470000000001400004004000080040DF
:103D6000000C0040000401400018004000400140E9
:103D70000700010070B5044690F83C0000250128BA
:103D800014D03A4B012684F83C60022084F83D00B0
:103D900022689068184020F47F409060086870287E
:103DA0002FD010DC10F00F0F03D022E04FF00200F4
:103DB00070BD4FEA2012072A1BD2DFE802F05353EE
:103DC00053534B394100B0F1101F4BD009DCB0F513
:103DD000805F0FD0B0F5005F1ED0B0F5801F08D116
:103DE00040E0A0F5801120393CD010293AD020299C
:103DF00038D0012584F83D60002084F83C00284636
:103E000070BD4A682068D1E9021302F011FC2068F5
:103E1000816841F0770109E04A682068D1E902131E
:103E200002F006FC2068816841F480418160E1E78E
:103E3000CA684968206802F0A9FD2068502106E0A0
:103E4000CA684968206802F0B2FD2068602102F06B
:103E5000F9FBCFE7CA684968206802F097FD20683F
:103E60004021F4E7226801461046F0E788FFCEFFC4
:103E70002DE9F04104000D4603D094F83D0018B13F
:103E800008E00120BDE8F081002084F83C002046D5
:103E900000F04CF8244A022084F83D002068816834
:103EA000114081602068211D02F05CFB226840F215
:103EB0000336AF6940F60C4C2B684FF2F00EA86841
:103EC00091680B439169B14341EA07210843D5E961
:103ED000031720EA0C00D5E9076C20EA0E00D2F89F
:103EE00020E03F0140EA062668686D69314347EAF1
:103EF0000C37936023680F4301219F612EF0AA02C3
:103F000042EA051322681843106284F8481084F8C6
:103F10003E1084F83F1084F8441084F8451084F86B
:103F20003D100020AEE70000F8BFFEFF10B586B0E0
:103F3000044614216846FCF711FB234A002023683D
:103F4000224993424FF002021CD1204B10331C68CF
:103F500044F001041C601B6803F0010305930B6827
:103F600043F010030B600968012301F01001059173
:103F70004FF420610091CDE90120CDE903031448FD
:103F800069461DE0134CA3421CD1104B08331C683A
:103F900044F004041C601B6803F0040305930B68E1
:103FA00043F008030B60096801F0080105914FF424
:103FB00040510091CDE90120CDE903020648694650
:103FC000FEF76EF806B010BD00000140E044025854
:103FD0000010025800080040000C025870472DE9FC
:103FE000F041044600680027C6680569A90713D593
:103FF000B10711D5FA1E026101212177206880697D
:104000008007204602D0FFF7E9FF04E000F0B4F893
:10401000204600F076F92777680716D5700714D583
:10402000226802206FF00401116120772068806906
:1040300010F4407F204602D0FFF7D0FF04E000F0EC
:104040009BF8204600F05DF92777280715D5300743
:1040500013D5226804206FF00801116120772068D1
:10406000C0698007204602D0FFF7B8FF04E000F0E7
:1040700083F8204600F045F92777E80616D5F006C4
:1040800014D5226808206FF0100111612077206894
:10409000C06910F4407F204602D0FFF79FFF04E084
:1040A00000F06AF8204600F02CF92777E80708D0DE
:1040B000F00706D021686FF001000861204600F08B
:1040C00021F9280601D4A80408D5300606D52168B0
:1040D0006FF4025008612046FFF737FDE80508D568
:1040E000300606D521686FF4807008612046FFF71E
:1040F0002BFD680608D5700606D521686FF04000D4
:104100000861204600F01CF9A8060AD5B00608D5BB
:1041100021686FF0200008612046BDE8F041FFF7FC
:1041200015BDBDE8F081000010B586B0044614212D
:104130006846FCF713FA0D492068884214D10C48F0
:10414000016841F001010160006800210F2200F0C8
:104150000100059002200092CDE90101CDE9031094
:1041600004486946FDF79CFF06B010BD000C0040F6
:10417000E044025800000258704770B5044690F8B9
:104180003C0000260D4601280BD0012084F83C009D
:104190000C2A4AD007DC82B1042A20D0082A06D192
:1041A00031E0022070BD102A53D0142A63D00126BA
:1041B000002084F83C00304670BD206802F04CFAC4
:1041C0002068816941F0080181612068816921F0DE
:1041D0000401816120682A698169114311E0206826
:1041E00002F08CFA2068816941F4006181612068E5
:1041F000816921F48061816120682969826942EACC
:1042000001218161D4E7206802F0C4FA2068C16905
:1042100041F00801C1612068C16921F00401C16158
:1042200020682A69C169114311E0206802F0FEFA92
:104230002068C16941F40061C1612068C16921F44D
:104240008061C16120682969C26942EA0121C161B6
:10425000AEE7206802F026FB2068416D41F00801BE
:1042600041652068416D21F00401416520682A699B
:10427000416D114311E0206802F04EFB2068416D52
:1042800041F4006141652068416D21F48061416520
:1042900020682969426D42EA0121416588E710B52D
:1042A000040003D094F83D0010B107E0012010BDD8
:1042B000002084F83C00204600F022F8022084F818
:1042C0003D002068211D02F04DF9012084F84800CE
:1042D00084F83E0084F83F0084F8400084F84100F0
:1042E00084F8420084F8430084F8440084F84500D0
:1042F00084F8460084F8470084F83D00002010BD93
:104300007047704700680B4988420DD10A48012167
:104310008170C28A521C92B2C2820A2A02D9002239
:10432000C282C170FCF7E2B90449884201D100F0B1
:10433000E9BD7047000C00405800002400440140D3
:10434000704730B590F88410012918D0012280F808
:1043500084202421C0F888100022202401680B68E2
:104360000D6823F0005325F001050D6042660168D9
:104370000B60C0F8884080F88420104630BD0220D1
:1043800030BD7047704770B5044690F8840001282E
:104390001DD0012284F884202420C4F888002068DD
:1043A0000568026822F0010202602068826822F03B
:1043B00060620A438260204602F050FB226820219E
:1043C00000201560C4F8881084F8840070BD0220B5
:1043D00070BD70B5044690F8840001281DD00122FC
:1043E00084F884202420C4F88800206805680268C6
:1043F00022F0010202602068826822F060420A43D3
:104400008260204602F02AFB2268202100201560ED
:10441000C4F8881084F8840070BD022070BD704715
:10442000704770B501680446D0F888001025D4F8AC
:104430008C608968090618D5212816D120680830B3
:1044400050E8001F21F0800140E80012002AF5D159
:10445000E06F38B1FCF77AFC20B1E06FFCF768FF41
:10446000202823D0204602F0A3FC20688068400664
:104470001AD5222E18D12068083050E8001F21F0EC
:10448000400140E80012002AF5D1D4F8800040B184
:10449000FCF75CFC28B1D4F88000FCF749FF202829
:1044A00004D0204602F05AFC002070BDC4F89050A1
:1044B000032070BD704700002DE9F041076800251A
:1044C000044640F60F030226F8693968BA681842B4
:1044D0000AD183067ED501F0200302F0805C53EA06
:1044E0000C0377D0616F7EE1D44BDFF854C31340E7
:1044F00001EA0C0C53EA0C0C6CD05FEAC07C0CD0C7
:104500005FEAC15C09D54FF0010CC7F820C0D4F8B0
:10451000907047F00107C4F89070870709D5D70756
:1045200007D027683E62D4F8906046F00406C4F8CD
:10453000906046070AD5D60708D0276804263E6251
:10454000D4F8906046F00206C4F8906006070CD5D7
:1045500001F020061E4308D0266808233362D4F8F1
:10456000903043F00803C4F8903003050BD54B019D
:1045700009D526684FF400633362D4F8903043F0D5
:104580002003C4F89030D4F89030002B3DD0800642
:1045900009D501F0200002F08051084303D0616F7B
:1045A00009B1204688472168D4F8900089684906F7
:1045B00002D410F0280F2AD0204602F0CFFB20684A
:1045C000806840061ED52068083050E8001F21F0A2
:1045D000400100E021E040E80012002AF3D1D4F8C5
:1045E000800078B197490165D4F88000FCF75EFD42
:1045F00000280AD0D4F88000016D00E02046BDE814
:10460000F04108472046FFF755FFBDE8F0812046FE
:10461000FFF750FFC4F89050F7E7D4F86CC02023A0
:10462000BCF1010F7ED15FEAC06C7BD55FEAC16C43
:1046300078D51020386220688068400673D5D4F899
:10464000802081491068884234D07F4918318842DF
:1046500030D07D49303188422CD07B494831884266
:1046600028D079496031884224D07749783188420E
:1046700020D07549903188421CD07349A8318842B6
:1046800018D07249884215D070491831884211D02B
:104690006E49303188420DD06C494831884209D08A
:1046A0006A496031884205D068497831884201D032
:1046B0006649903140684FF480770004000C40D088
:1046C000B4F85C1081423CD9A4F85E00D069B842CD
:1046D0002FD0216851E8000F20F4807041E80002DB
:1046E000002AF6D12068083050E8001F21F00101AF
:1046F00040E80012002AF5D12068083050E8001F79
:1047000021F0400140E80012002AF5D1C4F88C30B5
:10471000E566206850E8001F21F0100140E8001213
:10472000002A01E04AE019E0F3D1D4F88000FCF758
:104730000DFB2667B4F85C00B4F85E10401A81B235
:1047400008E0B4F85C1081427FF466AFD069B842EB
:10475000FAD126672046FFF714FE56E7B4F85C004E
:10476000B4F85E10B4F85E20401A81B2002AF4D08A
:104770000029F2D0226852E8000F20F4907042E83D
:104780000007002FF6D1324F206800F1080050E8F2
:10479000002F02EA070240E8002CBCF1000FF3D121
:1047A000C4F88C30E5666567226852E8000F20F097
:1047B000100042E80003002BF6D1CAE7C60209D573
:1047C000560207D54FF4801038622046BDE8F0410C
:1047D000FFF726BE06060AD501F0800602F40002A5
:1047E000164304D0A16F00297FF408AF0DE74206FD
:1047F00011D54A060FD52046016851E8002F22F056
:10480000400241E80024002CF6D1C0F888308567CA
:1048100000F062FBF9E6020206D54A0004D5204604
:10482000BDE8F041FFF7FBBDC00196D5002994DA41
:104830002046BDE8F041FFF7A5BD000001000010D3
:1048400020010004136C0008100002401004024014
:10485000FEFFFFEF10B5040003D0D4F8880010B1BC
:1048600007E0012010BD002084F88400204600F0FD
:1048700027F82420C4F888002068016821F001018D
:104880000160A06A10B1204602F00AF9204602F049
:10489000A7FA0128E6D02068416821F490414160E0
:1048A0002068816821F02A0181602068016841F058
:1048B000010101602046BDE8104002F055B900003A
:1048C0002DE9F04FB7B00446142130A8FBF746FE9F
:1048D000C0216846FBF742FEDC4A0226DA4D002181
:1048E00020684FF4803BDFF86093083D17154FF0C8
:1048F0004008904263D100221E9102238A466846F6
:10490000CDE90032FDF766FF08B1FCF70FFAD9F8E0
:10491000001041F48011C9F80010D9F8000000F42B
:1049200080103590286840F00200286028680E2129
:10493000554600F0020035904FF440503090CDE9DC
:10494000316ACDE933A1C24830A9FDF7A9FBDFF8F0
:1049500004934123C04ADA46484689E82C00C0E95E
:104960000357C9F81450C9F81850C9E9075BC9F8CA
:104970002450FDF753F808B1FCF7D8F9B54E42239F
:10498000C4F880907836C9F83840B34A3046C6E952
:10499000035775616032B561C6E9075A756286E8EA
:1049A0000C01FDF73BF808B1FCF7C0F90022E667FF
:1049B00035201146B463FDF75BFD352066E0A74A5C
:1049C000904268D100201F9101228946CDE9002044
:1049D0006846FDF7FFFE08B1FCF7A8F99A480830D1
:1049E000016841F010010160006800F0100035908E
:1049F000286840F002002860286804214D4600F035
:104A0000020035904FF440403090CDE93169CDE956
:104A100033918F4830A9FDF743FB8E4E29228E49F2
:104A2000D946F0364839304686E82600C6E90357AD
:104A30007561B561C6E9075B7562FCF7EFFF08B108
:104A4000FCF774F9DFF818A22A23C4F880605046F6
:104A5000B463814AC0E90357CAF814501832CAF83F
:104A600018508AE80C01CAE90759CAF82450FCF723
:104A7000D5FF08B1FCF75AF90022C4F87CA0252024
:104A80001146CAF83840FDF7F3FC2520FDF7E2FC9B
:104A900037B0BDE8F08F734A4FF0070B904267D1F3
:104AA00000221E9102238A466846CDE90032FDF7B6
:104AB00091FE08B1FCF73AF9D9F8001041F4003141
:104AC000C9F80010D9F8000000F4003035902868CB
:104AD00040F00800286028686021309130A900F07B
:104AE00008005546CDE9316ACDF8CCA0CDE934B007
:104AF0005D48FDF7D5FA5A4E2B2257494FF44039FD
:104B000078363039304686E82600C6E903577561A5
:104B1000B561C6E907597562FCF780FF08B1FCF77B
:104B200005F9DFF83CA12C23C4F880600AF1F00AF3
:104B3000B4635046484A4832C0E90357CAF8145093
:104B4000CAF818508AE80C01CAE90759CAF8245073
:104B5000FCF764FF08B1FCF7E9F80022C4F87CA078
:104B600026201146CAF83840FDF782FC26208DE742
:104B70003E4A90428CD100221E9102238A4668460A
:104B8000CDE90032FDF726FE08B1FCF7CFF8D9F8E1
:104B9000001041F48021C9F80010D9F8000000F499
:104BA00080203590286840F00800286028684FF47D
:104BB0004071309130A900F008005546CDE9316AC6
:104BC000CDF8CCA0CDE934B02748FDF769FA284EDE
:104BD0002D2221494FF440393046303186E82600F5
:104BE000C6E903577561B561C6E907597562FCF7F7
:104BF00015FF08B1FCF79AF8DFF874A02E23C4F86B
:104C000080600AF1780AB4635046134A183AC0E942
:104C10000357CAF81450CAF818508AE80C01CAE9B8
:104C20000759CAF82450FCF7F9FE08B1FCF77EF8E2
:104C30000022C4F87CA027201146CAF83840FDF7AE
:104C400017FC272022E70000E844025800500040EB
:104C5000000402586C060024580002400010014075
:104C6000D407002400440040000C025800480040D3
:104C70003C09002430B4D0F88C30202B02D0022024
:104C800030BC7047A9B1A2B10B4D00240368C466C3
:104C9000AB420BD05B681B0208D5046854E8003FA8
:104CA00043F0806344E80035002DF6D130BC02F0BB
:104CB0006DBA0120E4E70000000C005810B50C4963
:104CC00004460068884204D101F084F9094801F0E3
:104CD000B8FE09492068884209D10648D83002F058
:104CE00003FD0448BDE81040801D01F0AABE10BDC0
:104CF00000100140880100240044004070472DE965
:104D0000F8430446D0F88800984616460D462028F9
:104D100002D00220BDE8F883A5B19EB10021C4F8FD
:104D200090102120C4F888001834FDF7DBFA814682
:104D300054F8100CA687E6872027183CB0F5805F52
:104D400002D003E00120E5E7206910B12E460025DE
:104D500010E000260EE08021204602F024FBC0B9BE
:104D6000DEB116F8010B21688862B4F85600401EC7
:104D7000A4F85600B4F856004B464FF00002CDF8A8
:104D800000800028E7D14FF04001204602F00BFBE5
:104D900048B1C4F888700320BCE735F8020B2168DD
:104DA000C0F30800E0E7C4F888700020B2E7000014
:104DB00070B50446D0F88800202801D0022070BDCC
:104DC00039B332B3E06F002321652125A4F85420C4
:104DD000A4F85620C4F89030C4F88850D8B11549CA
:104DE000C163E16F14480864E16F1448C864E06F60
:104DF000036513462068E56F00F12802216D2846FF
:104E0000FCF7EEFF38B11021C4F890102020C4F850
:104E10008800012070BD21684020086220680830A9
:104E200050E8001F41F0800140E80012002AF5D14F
:104E3000002070BD136D0008536D0008236C00083E
:104E400010B5D0F88830202B01D0022010BD21B33E
:104E50001AB3A0F854200023A0F856204FF4805431
:104E6000426E016521218367C0F89030C0F8881038
:104E7000B2F1005F816812D0A14201D1016909B38A
:104E800011498167026852E8001F41F0800142E841
:104E90000013002BF6D1002010BD012010BDA1424F
:104EA00001D1016961B1094981670168083151E89F
:104EB000002F42F4000241E80023002BF5D1EAE77D
:104EC0000349F1E70349DCE7F37200084173000886
:104ED000897200083572000800680021054B064AF7
:104EE000984200D11171054B984202D1517101F0E5
:104EF000FBB97047004800405800002400500040B3
:104F0000704700002DE9F0476C4C00256C484FF4C9
:104F1000AF79DFF8B081227801262AB10221012A77
:104F200023D0022A2BD131E0018849B16178491C94
:104F300061706178052922D30088A08226701DE067
:104F40006570A07B38B1FDF7CDF9616A401AB0F504
:104F5000E17F00D9A573607B88B1FDF7C3F9216AB1
:104F6000401A48450BD9657309E0008830B960786C
:104F7000401C60706078052801D321706570E0796D
:104F8000002801D088F83060BDE8F087A08A40286A
:104F900034D00CDC042867D004DC012861D002285E
:104FA0007ED154E008287ED0102879D10BE08028EB
:104FB00028D0B0F5807F2CD0B0F5006F77D0B0F559
:104FC000004F6DD175E0E079A0B10020E07198B19B
:104FD0003C48B83090ED020A7038B1EE400AB7EEA6
:104FE000C00A88ED0E0B88F8306000F0FDFE6420EA
:104FF000257204E00120E9E788F8305057E0FBF71C
:1050000063FB4DE0A6719620E571257288F830505B
:10501000F5E72A4F1C37B7F90010002001F054F9CA
:10502000B7F90210012001F04FF9257301F034F9AE
:10503000FDF758F9FA30A06201F036F99FED220A27
:1050400084ED0B0A84ED0C0A84ED0D0A34E0217323
:10505000217B1E4830F91110002001F035F9A573AD
:1050600025E000F037F81BE0FDF73CF90746607BD0
:1050700060B1206A381A484508D8012040F28A21D8
:1050800001F022F96573782008E00CE001204FF46C
:10509000967101F019F9667327625020FBF714FB33
:1050A000A58225706AE70A49012001F00DF9322036
:1050B000A5E7607A404260725020A0E758000024C3
:1050C00000000024A8010024000000007E7D0008EC
:1050D000D4FEFFFF10B5FDF705F9124901224B6A16
:1050E000C31AB3F5E17F06D88B7B022B04D28B7BEE
:1050F0005B1C8B7300E08A7300234862887B012865
:1051000001D80B7301E00A738B73097B064830F9F1
:105110001110002001F0D8F8BDE810403220FBF754
:10512000D3BA0000580000247E7D0008FEE700008E
:105130001348144B0146D0ED020AB1F9021070EE8B
:10514000600A10EE902A9A4201DD491E05E010EE39
:10515000902A0D4B9A4201D9491C4180B0F90210A6
:105160009FED0A1A00EE901AF8EEE01AF0EE400AEF
:1051700041EE810AC0ED010A80ED020A704700008D
:105180004800002400003443000034C30000B4434E
:10519000254808B5016841F001010160006800225E
:1051A000114600F0010000900B20FDF761F90B2083
:1051B000FDF750F900220C201146FDF759F90C209B
:1051C000FDF748F900220D201146FDF751F90D2099
:1051D000FDF740F900220E201146FDF749F90E2097
:1051E000FDF738F900220F201146FDF741F90F2095
:1051F000FDF730F9002210201146FDF739F9102093
:10520000FDF728F9002211201146FDF731F9112090
:10521000FDF720F900222F201146FDF729F9BDE8FE
:1052200008402F20FDF716B9D844025810B586B0B3
:1052300014216846FBF792F91D48016841F01001FE
:105240000160016801F010010591016841F08001E1
:105250000160016801F080010591016841F00101E0
:105260000160016801F001010591016841F002014E
:105270000160016801F002010591016841F0080137
:105280000160006801220B4C102100F0080005901D
:105290002046FDF71BF80021102000900122204637
:1052A000CDE9012103916946FCF7FAFE06B010BD75
:1052B000E0440258001002580C484FF6FF7210B537
:1052C0000021094C0323C0E902120161416181619F
:1052D000C0E90043FEF78EFC002803D0BDE8104073
:1052E000FBF724BD10BD00000044014084030024EE
:1052F0000C484FF6FF7210B50021094C0323C0E99A
:105300000212016141618161C0E90043FEF772FC54
:10531000002803D0BDE81040FBF708BD10BD000019
:1053200000480140D003002410B58CB02421684609
:10533000FBF714F9174800244FF6FF73144A099439
:1053400001210A940B94C0E90024C0E902430461DE
:10535000022244618461CDE90012CDE90214049473
:10536000CDE90541694607940894FEF781FD08B12F
:10537000FBF7DCFC074809A909940A940B94FEF793
:10538000E7FB002801D0FBF7D1FC0CB010BD0000FA
:1053900000000140A002002410B58CB02421684612
:1053A000FBF7DCF816480024144B4FF6FF72099403
:1053B00001210A940B94036002234460C0E9024275
:1053C00004618461CDE90013CDE902140494CDE9B0
:1053D0000541694607940894FEF74AFD08B1FBF7BA
:1053E000A5FC074809A909940B94FEF7B1FB002816
:1053F00001D0FBF79BFC0CB010BD00000008004082
:10540000EC02002410B58EB000241C21009407A8E3
:10541000019402940394049405940694FBF79EF877
:105420002B4840F2E731EF22284BC0E902410461EA
:105430008461C0E90032FEF7DDFB08B1FBF776FCC2
:105440004FF48050009022486946FEF793FC08B163
:10545000FBF76CFC1E48FEF722FF08B1FBF766FC69
:105460001B4804A904940694FEF772FB08B1FBF7ED
:105470005DFC7020CDE907041548002207A90994B6
:105480000B94FEF77AFE08B1FBF750FC104804229B
:1054900007A9FEF772FE08B1FBF748FC60200790F1
:1054A0000B48082207A9FEF768FE08B1FBF73EFC8F
:1054B00007480C2207A9FEF760FE08B1FBF736FC8F
:1054C0000348FEF731FE0EB010BD0000000C004096
:1054D000380300241848002110B5164C0C224FF454
:1054E000E1330460C0E90131C160C0E904128161A7
:1054F000C161016241628162FFF7ACF908B1FBF75B
:1055000015FC0D480021FEF764FF08B1FBF70EFC07
:1055100009480021FEF737FF08B1FBF707FC0648F2
:10552000FEF70FFF002803D0BDE81040FBF7FEBBDD
:1055300010BD0000005000401C0400241848002149
:1055400010B5164C0C224FF4E1330460C0E9013170
:10555000C160C0E904128161C1610162416281627E
:10556000FFF778F908B1FBF7E1FB0D480021FEF7E2
:1055700030FF08B1FBF7DAFB09480021FEF703FF13
:1055800008B1FBF7D3FB0648FEF7DBFE002803D08B
:10559000BDE81040FBF7CABB10BD00000010014081
:1055A000B00400241848002110B5164C0C224FF40A
:1055B000E1330460C0E90131C160C0E904128161D6
:1055C000C161016241628162FFF744F908B1FBF7F2
:1055D000ADFB0D480021FEF7FCFE08B1FBF7A6FB72
:1055E00009480021FEF7CFFE08B1FBF79FFB0648F4
:1055F000FEF7A7FE002803D0BDE81040FBF796BBDE
:1056000010BD00000044004044050024184800215B
:1056100010B5164C0C224FF4E1330460C0E901319F
:10562000C160C0E904128161C161016241628162AD
:10563000FFF710F908B1FBF779FB0D480021FEF7E1
:10564000C8FE08B1FBF772FB09480021FEF79BFE7C
:1056500008B1FBF76BFB0648FEF773FE002803D08A
:10566000BDE81040FBF762BB10BD000000480040E1
:10567000D80500242DE9F0411D4616460F46044684
:105680002DED048B90ED050ADDF8288002F05EF820
:10569000D4ED020A60EE208A94ED050A02F0FEF8CD
:1056A000D4ED030A40EE808A94ED050A02F04EF82C
:1056B000D4ED030A20EE208A94ED050A02F0EEF8FC
:1056C000D4ED021A9FED1C1ADFED1C0A01EEC08A10
:1056D00094ED040A38EEC82A78EE881AF0EE422AD1
:1056E000B0EE613A40EE411A00EE013A00EE012AB6
:1056F00040EE412AC1EEA08A82EEA00A83EE208A03
:1057000082EE209A02F01AFB87ED000AB0EE480AFA
:1057100002F014FB86ED000AB0EE680A02F00EFB00
:1057200085ED000AB0EE490A02F008FB88ED000A98
:10573000BDEC048BBDE8F08148E1DA3E5839343DD8
:105740001CB59FED211A00F11803224C80ED001AC0
:1057500080ED011A80ED021A80ED031A80ED041A23
:1057600080ED051A9FED192B0022012183EC030A1D
:10577000203380ED091A80ED0A1A80ED0B1A80F8AB
:10578000302080ED0E2B80ED102BCDE9001204F1BE
:10579000200200F14001104894EC060B00F084FA5E
:1057A0000D48012100F054FB0B48012100F08FFB54
:1057B00094ED061BBDE81C40B0EE410B0648B1EE6F
:1057C000400B00F053BB0000000000000000000090
:1057D0000000000020000024F001002408B500F1C2
:1057E000080282EC030A9FED170A31B1DFED160AB9
:1057F00071EEA00A20EE800A01E021EE800A134A31
:10580000DFED130A10EE101A80ED050A914202DD59
:1058100030EE600A06E0B5EEC00AF1EE10FA03D2EF
:1058200030EE200A80ED050A00F12C010B1FB1EECD
:10583000400A80ED050A1A1F00910C39FFF71AFF84
:1058400008BD00002EFA8E3C00003443D00FC94042
:10585000D00FC9402DE9F0472DED068BFCF742FD36
:10586000DA4C9FEDDB8AA16A081A00280BDD00F0F4
:105870001BFD84ED0B8A84ED0C8A84ED0D8ABDEC52
:10588000068BBDE8F087D348DFEDD31A9FEDD31A1E
:10589000DFEDD30AC178D34D00EE101AB8EE400AFE
:1058A00020EE210AC0EE011A30EEE10A85ED060A6B
:1058B0008178642905D9F0EE000A20EE200A85EDF2
:1058C000060ADFEDC90AD5ED061AB7EE080A4FF051
:1058D0007E5161EEA00AB7EE004A20EE800A10EE7B
:1058E000102A85ED070A8A4201DA85ED074A9FED05
:1058F000BF1A90F9046090F9057000EE106A90F9F3
:105900000600BB4AF8EEC00A00EE107A02EE100A5A
:10591000B84BB8EEC00A60EE810AB8EEC22A10EEAB
:10592000900A20EE010A22EE011A904205D210EEF2
:10593000900A984201DAF0EE480A10EE100A9042FE
:1059400005D210EE100A984201DAB0EE480A11EEC4
:10595000100A904205D211EE100A984201DAB0EE18
:10596000481A21EE802A61EEA01AA348A34B9FEDAE
:10597000A40A94F90920D5ED074A00EE902AD4ED47
:105980000B3A61EE648AB8EEE05AF8EEE04A94ED24
:105990000C3AD4ED0D2A22EE05AA61EEA49A78EE17
:1059A000E20A3AEE632A79EEC31A12EE102A824214
:1059B00002DD33EE80AA05E012EE102A9A4201D9E8
:1059C00033EEC0AA11EE902A824202DD73EE009AF5
:1059D00005E011EE902A9A4201D973EE409A10EE3A
:1059E000902A824202DD72EE808A05E010EE900A73
:1059F000984201D972EEC08ADFF8E89184ED0BAAD3
:105A0000C4ED0C9A09F1B809C4ED0D8A99ED020AAA
:105A1000B1EE400AB7EEC02A85ED102B95F83000A4
:105A2000E8B3B0EEC10A10EE100A764A764FDFED09
:105A300077AADFF8DC81002690425CDAE6739FEDFE
:105A4000750A95ED0E1B744A31EE421BB7EEC11B71
:105A500002E000BF31EE401A11EE100A9042F9DC6C
:105A60006E4A00BF11EE100A904202D931EE001AC0
:105A7000F8E7B7EEC13AB0EEC10A10EE100A88425C
:105A800032EE031B85ED0E1B17DD10EE100A9FEDA5
:105A9000640AB0F1824F534830FE048A00E03CE0D3
:105AA00000F1480000F036F95E4890ED000B2674D6
:105AB000B7EEC00B20EE088A07E0207C28B94948E1
:105AC000483000F091F90120207494ED0E0A38EE70
:105AD000409A19EE100AB84202DDB0EE6A9A05E06B
