:020000040800F2
:10000000482200249103000831E8000821D30008A9
:10001000B9E50008ED0E0008812401080000000089
:1000200000000000000000000000000001FA0008CD
:10003000A51700080000000021F40008C100010815
:10004000AB030008AB030008AB030008AB030008D8
:10005000AB030008AB030008AB030008AB030008C8
:10006000AB030008AB030008AB030008391100081C
:100070004911000859110008691100087911000898
:100080008911000899110008650D0008AB030008EC
:10009000AB030008AB030008AB030008AB03000888
:1000A000AB030008AB030008AB030008AB03000878
:1000B000AB030008AB030008AB030008AB03000868
:1000C000AB030008AB030008AB030008AB03000858
:1000D000AB0300081D2401082D2401083D2401085C
:1000E000AB030008AB03000800000000AB030008EE
:1000F000AB030008AB030008AB030008A91100081C
:10010000AB030008AB0300081D030108AB030008A4
:10011000D90B0108E90B0108AB030008AB03000889
:10012000B9110008C9110008D9110008E911000827
:10013000F9110008AB030008AB030008AB0300088B
:1001400000000000000000000000000000000000AF
:100150000912000819120008291200084D2401088C
:10016000AB030008AB030008AB030008AB030008B7
:10017000AB030008AB030008AB030008000000005D
:10018000AB030008AB030008F90B0108090C0108D8
:10019000AB030008AB030008AB030008AB03000887
:1001A000AB030008AB030008AB030008AB03000877
:1001B000AB030008AB030008AB030008AB03000867
:1001C000AB030008AB030008AB030008AB03000857
:1001D000AB030008AB030008AB030008AB03000847
:1001E000AB030008AB030008AB030008AB03000837
:1001F000AB030008AB030008AB030008AB03000827
:10020000AB030008AB030008AB030008AB03000816
:10021000AB030008FD0201080D030108AB03000851
:10022000AB030008AB030008AB03000800000000AC
:10023000AB030008AB03000800000000AB0300089C
:10024000AB030008AB030008AB030008AB030008D6
:10025000AB030008AB030008AB030008AB030008C6
:10026000AB030008AB030008AB030008AB030008B6
:10027000AB030008AB030008AB030008000000005C
:10028000AB030008AB030008AB030008000000004C
:1002900000000000AB03000800F002F800F068F86E
:1002A0000AA090E8000C82448344AAF10107DA45D1
:1002B00001D100F05DF8AFF2090EBAE80F0013F0BB
:1002C000010F18BFFB1A43F0010318474437010020
:1002D000643701000A444FF0000C10F8013B13F0A2
:1002E000070408BF10F8014B1D1108BF10F8015B8F
:1002F000641E05D010F8016B641E01F8016BF9D182
:1003000013F0080F1EBF10F8014BAD1C0C1B09D1D8
:100310006D1E58BF01F801CBFAD505E014F8016B4A
:1003200001F8016B6D1EF9D59142D6D370470000DC
:100330000023002400250026103A28BF78C1FBD8EE
:10034000520728BF30C148BF0B607047642900F0D6
:100350005781732900F0A383002070471FB513F065
:10036000DDF99DE8030000F0A9FA1FBD10B510BD2E
:1003700000F0C4FB1146FFF7F1FF12F0D9FF00F0C7
:10038000E2FB03B4FFF7F2FF03BC00F013FC000034
:100390000948804709480047FEE7FEE7FEE7FEE719
:1003A000FEE7FEE7FEE7FEE7FEE7FEE70448054955
:1003B000054A064B70470000010201089902000837
:1003C000481C002448220024481E0024481E002403
:1003D00070B5064600F056FA056806F10B0020F0ED
:1003E0000704B4429CBF002070BD2B466A68BAB1B6
:1003F0001068A04210D304F1080188423CBF506845
:10040000586007D35168101941601168091B0160D9
:1004100058601460101D70BD13465268002AE7D161
:100420002146284600F036FA0028DED170BD53EA96
:10043000020C00F069802DE9F04B4FF00006002B14
:100440001FBFB3FA83F503FA05F424FA05F65E40FC
:1004500012BF1643B2FA82F502FA05F4C5F120057F
:100460001EBF22FA05FC44EA0C04203556EA044C6F
:100470004FEA144418BF641C4FF000084FF0000905
:10048000904271EB030C39D3002919BFB1FA81F7FF
:1004900001FA07F6B0FA80F700FA07F6C7F120076D
:1004A0001EBF20FA07FC46EA0C062037B6FBF4FC18
:1004B000A7EB0507103F07F01F0BCBF120060CFA46
:1004C0000BFB2CFA06F644BFB3460026202FA4BF30
:1004D0005E464FF0000B5BEA060C08BF4FF0010BC5
:1004E00019EB0B09ABFB027C48EB0608C01B06FBB3
:1004F00002CC0BFB03CC71EB0C01C1E70B460246AF
:1005000041464846BDE8F08B13B54FF000004FF070
:100510000001AFF30080BDE81C4070470FB41CB56C
:10052000074B06AA7B4469460090059800F08DFAB7
:100530000020694600F09CFA1CBC5DF814FB00002A
:10054000490500002DE9F0410E46044600202062D6
:100550002046E168884730B3252805D0D4E9012139
:100560009047206A401CF2E7E16820460027884750
:10057000050018D0A5F14100192802D820354FF404
:1005800000673246294620462760FFF7DFFE40B16C
:10059000012804D0F61D26F007060836D8E7361DD8
:1005A000D6E72846DAE7206ABDE8F08170B50C4648
:1005B0000546012A05D02878800600D5EA6900237F
:1005C00002E0012305E05B1C934202D2E05C0028BC
:1005D000F9D1A869E618C01AA861286A18442862E7
:1005E0002846AFF3008004E0D5E9012114F8010B9F
:1005F0009047B442F8D32846AFF3008070BD0000A6
:100600002DE9F0410646002410687529314616A5EB
:1006100010D0AFF30080002802DA404213A507E0B3
:1006200031688A0701D512A502E0490704D511A552
:10063000012401E0AFF3008000210A2206F1240723
:1006400009E0B0FBF2FCB0FBF2F302FB1C0030301F
:1006500078541846491C0028F3D123462A463046D0
:10066000BDE8F04100F092B9000000002D0000004C
:100670002B0000002000000040EA0103024630B5D4
:100680009B0710D14FF0013400E008C208C91D1BC0
:100690009D4315EAC41FF8D013F0FF0102F8011BB7
:1006A0000DD01B0AF8E711F8013B002B02F8013BC3
:1006B00005D011F8013B002B02F8013BF3D130BD0E
:1006C00010B5431C02E010F8011B71B18107FAD18B
:1006D0004FF0013202C88C1A8C4314EAC211F9D0CF
:1006E000C01A0A0603D0C01E10BDC01A10BD0A04ED
:1006F00001D0801E10BD0902FCD0401E10BD032A8F
:1007000040F2308010F0030C00F0158011F8013B2E
:10071000BCF1020F624498BF11F801CB00F8013B15
:1007200038BF11F8013BA2F1040298BF00F801CBD9
:1007300038BF00F8013B11F0030300F02580083AB0
:10074000C0F0088051F8043B083A51F804CBA0E807
:100750000810F5E7121D5CBF51F8043B40F8043B5C
:10076000AFF30080D20724BF11F8013B11F801CB91
:1007700048BF11F8012B24BF00F8013B00F801CB62
:1007800048BF00F8012B704710B5203AC0F00B802D
:10079000B1E81850203AA0E81850B1E81850A0E885
:1007A0001850BFF4F5AF5FEA027C24BFB1E81850DF
:1007B000A0E8185044BF18C918C0BDE810405FEA4F
:1007C000827C24BF51F8043B40F8043B08BF7047CB
:1007D000D20728BF31F8023B48BF11F8012B28BFD0
:1007E00020F8023B48BF00F8012B70474FF0000291
:1007F0000429C0F0128010F0030C00F01B80CCF133
:10080000040CBCF1020F18BF00F8012BA8BF20F8A0
:10081000022BA1EB0C0100F00DB85FEAC17C24BFF4
:1008200000F8012B00F8012B48BF00F8012B70479E
:100830004FF0000200B5134694469646203922BF79
:10084000A0E80C50A0E80C50B1F12001BFF4F7AFC4
:10085000090728BFA0E80C5048BF0CC05DF804EBA6
:10086000890028BF40F8042B08BF704748BF20F814
:10087000022B11F0804F18BF00F8012B7047704712
:100880007047704700487047F01B0024704770475E
:100890007047704738B504460A4600206946AFF3F2
:1008A0000080002808BF38BD02460099204600F0AD
:1008B00003F9012038BD012000F018B9F8B5AFF3F5
:1008C0000080054600200C46102000BF0646A819EF
:1008D000A0420DD9324669460020AFF300800700E0
:1008E00008BF00F003F90098A04218BF0546C419DC
:1008F000FFF7C8FF05600746F01D20F00700461906
:10090000284600F00AF8B44208BFF8BDA21B3146E1
:100910003868BDE8F84000F0CFB800210160C0E9B8
:10092000011070471020704770B50446051FFFF78F
:10093000A9FF0068002C14BF446870BD002C18BFCC
:10094000AC423CBF20466468F8D301680A18AA424A
:1009500018BF456003D12A68054611440160286824
:100960004119A1421CBF6C6070BD6168696021685B
:100970000844286070BD10B500F09AF8006810BDFA
:1009800010B5044600F094F8046010BD2DE9F0475E
:100990000D4699469246044600F1240801688806EF
:1009A00004D5E06921F01001216000E00120A84297
:1009B00001DD471B00E00027A1697A1902EB09005D
:1009C000081AA0612078C00602D42046AFF3008048
:1009D000002608E0D4E901211AF806009047206AB1
:1009E000401C761C20624E45F4DB2078C0060AD5F8
:1009F0002046AFF3008006E0D4E901213020904783
:100A0000206A401C2062381EA7F10107F4DC07E0D1
:100A1000D4E9012118F805009047206A401C2062A3
:100A2000281EA5F10105F3DC2046AFF300802078F5
:100A3000000602D50220BDE8F0870120FBE7000098
:100A400001694A1C02610878704700B58FB0CDE992
:100A500001310021059105497944CDE90310114682
:100A60006846FFF76FFD0FB000BD0000E5FFFFFF18
:100A70000A6802F8010B0A60704710B5436913B1A8
:100A8000AFF3008001E0FFF791FD012010BD127867
:100A900000F124010A7000224A700122EDE711687A
:100AA0004FF0FF32E9E7000000487047E81B0024E0
:100AB00000487047E81B0024034640688C46002825
:100AC00018BF88423CBF03464068F8D318681844F2
:100AD000884207D00CF1030020F00700001D411AE6
:100AE000521A0146081D0A60FFF71EBF10B500F03C
:100AF00039F8BDE8104000F02FB870477546FFF791
:100B0000D3FFAE4605006946534620F007008546F0
:100B100018B020B5FFF74AFCBDE820404FF00006B2
:100B20004FF000074FF000084FF0000B21F00701D5
:100B3000AC46ACE8C009ACE8C009ACE8C009ACE818
:100B4000C0098D46704710B50446AFF300802046BB
:100B5000BDE81040FFF715BC002801D000F02AB80E
:100B60007047000010B5012805D0002103A000F057
:100B700027F8012010BD09A1F8E7000053494752AA
:100B8000544D454D3A204F7574206F66206865615D
:100B900070206D656D6F7279000000003A20486525
:100BA0006170206D656D6F727920636F7272757000
:100BB0007465640001491820ABBEFEE72600020000
:100BC00070B505460C460A2000E06D1C00F011F8D7
:100BD00035B128780028F8D102E0641C00F009F84B
:100BE00014B120780028F8D1BDE870400A20AFF396
:100BF000008008B569468DF800000320ABBE08BD33
:100C000070B504464F492068884203D04E49206899
:100C1000884208D14D48006800F4403008B10120F6
:100C200009E0002007E04A48006800F4403008B1BD
:100C3000012000E00020B8B108F038FA05466068ED
:100C4000B0F5803F06D0B0F5003F04D0B0F5403F8E
:100C500008D105E000BF6068000CB5FBF0F502E0CC
:100C6000AD0800E000BF2BE04FF40020002106F0AB
:100C7000ABF905466068C0F31101F9B980140C287E
:100C80001CD2DFE800F01B060708090A0B11131538
:100C9000171900BF00BF00BF00BF00BF6068800C15
:100CA0004000B5FBF0F50AE02D0908E06D0906E00B
:100CB000AD0904E0ED0902E02D0A00E000BF00BF2D
:100CC00005F0A4F841F20301884210D8214885427A
:100CD00006D92068806840F48070216888602FE021
:100CE0002068806820F480702168886028E06D08A2
:100CF0001948854206D82068806820F44070216831
:100D000088601DE01548854208D82068806820F476
:100D1000407040F480702168886011E0104885427E
:100D200008D82068806820F4407040F40070216882
:100D3000886005E02068806840F440702168886021
:100D400070BD000000200240002102400823024044
:100D500008630258002D3101105E5F0020BCBE0008
:100D600040787D0110B5024801F080FD10BD000003
:100D7000EC01002410B52648007800B32548B0F9EE
:100D800000002549B1F90010884206DD214800889D
:100D9000401E00B21F49088011E01E48B0F9000053
:100DA0001D49B1F90010884206DA1A480088401C33
:100DB00000B21849088002E0002015490870144864
:100DC000007818BB1548007800B314480078012853
:100DD00010D101228102124804F0DCFF1148B0F961
:100DE00000000D49088001200949087002200B49C4
:100DF00008700BE009480078022807D10022410260
:100E0000074804F0C7FF00200449087010BD000027
:100E1000FC000024EA000024EC000024FD00002473
:100E2000000C0258EE00002410B5642110484184E3
:100E30001048B0F900001049088001200F490870DF
:100E400000BF0F48B0F900000A49B1F9001088420C
:100E500003D00C4800780028F3D0962004F05CFA08
:100E6000002103484184962004F056FA10BD00008A
:100E700080140024F4000024EC000024FC00002472
:100E8000EA0000249C00002410B50448B0F92200B8
:100E90004FF47A7004F040FA10BD00008014002472
:100EA0000448B0F900000449088001200349087093
:100EB00070470000FA000024EC000024FC0000242D
:100EC0006421054841840548B0F9000004490880C0
:100ED000012004490870704780140024F4000024A5
:100EE000EC000024FC0000240170704700BFFEE706
:100EF00010B50D4880880C494988884209DB0020DC
:100F000009490870888001221021084804F042FF36
:100F100009E005488088401C034988800022102190
:100F2000024804F037FF10BD2001002400100258D1
:100F300010B594B0734890F8700008B9012000E033
:100F40000020704981F87000C8200EF05BFD6D48EC
:100F500090F87000002834D11090119012901390E6
:100F6000694810A91EC91EC0684B0FCB0CAC0FC43A
:100F700067480CA91EC91EC0644B1033D3E9012178
:100F80001868DB68CDE90A13CDE90802614808A9B1
:100F90001EC91EC05D4B20330FCB04AC0FC45E488E
:100FA00004A91EC91EC0594B3033D3E90102196888
:100FB000DB6801AC0DC4009158489DE81E001EC0BE
:100FC00036E0002010901190129013904E4810A916
:100FD0001EC91EC04D4B40330FCB0CAC0FC44C4848
:100FE0000CA91EC91EC0494B5033D3E90012D3E9E6
:100FF0000203CDE90A03CDE90812464808A91EC933
:101000001EC0424B60330FCB04AC0FC4424804A94E
:101010001EC91EC03D4B7033D3E90020D3E9021333
:1010200001AC0BC400923D489DE81E001EC000BFED
:10103000DFED3B4A9FED3B4A3548D0ED033A90ED5A
:10104000023AD0ED012A90ED002A2F48D0ED031A84
:1010500090ED021AD0ED010A90ED000A32480DF031
:1010600063FBDFED2F4A9FED314A2A48D0ED033A6A
:1010700090ED023AD0ED012A90ED002A2448D0EDFF
:10108000031A90ED021AD0ED010A90ED000A2648ED
:101090003C300DF049FBDFED264A9FED264A1E4805
:1010A000D0ED033A90ED023AD0ED012A90ED002AFE
:1010B0001848D0ED031A90ED021AD0ED010A90ED18
:1010C000000A194878300DF02FFBDFED194A9FED2B
:1010D000144A1248D0ED033A90ED023AD0ED012ABD
:1010E00090ED002A0C48D0ED031A90ED021AD0EDD5
:1010F000010A90ED000A0C48B4300DF015FB14B055
:1011000010BD0000E01300240C1200247C380108FC
:10111000A4000024B4000024C4000024D40000244F
:10112000000048440000C843E01000240000484389
:101130000000C8440080544410B5024802F078FD15
:1011400010BD0000200D002410B5024802F070FD13
:1011500010BD0000100E002410B5024802F068FD1A
:1011600010BD0000300C002410B5024802F060FDF4
:1011700010BD0000880E002410B5024802F058FD92
:1011800010BD0000980D002410B5024802F050FD7B
:1011900010BD0000000F002410B5024802F048FD09
:1011A00010BD0000780F002410B5024802F040FD89
:1011B00010BD00006009002410B5024802F038FD9F
:1011C00010BD0000D809002410B5024802F030FD1F
:1011D00010BD0000500A002410B5024802F028FD9E
:1011E00010BD0000C80A002410B5024802F020FD1E
:1011F00010BD0000F00F002410B5024802F018FDE9
:1012000010BD00006810002410B5024802F010FD67
:1012100010BD0000A80C002410B5024802F008FD23
:1012200010BD0000400B002410B5024802F000FD84
:1012300010BD0000B80B00240146374A08689042F0
:1012400049D0354A18320868904244D0324A303288
:10125000086890423FD0304A4832086890423AD0FD
:101260002D4A60320868904235D02B4A783208689F
:10127000904230D0284A9032086890422BD0264ABB
:10128000A8320868904226D0244A0868904222D0AA
:10129000224A1832086890421DD0204A303208682D
:1012A000904218D01D4A48320868904213D01B4A19
:1012B0006032086890420ED0184A7832086890422E
:1012C00009D0164A90320868904204D0134AA832D6
:1012D0000868904201D1012000E00020B0B10A78F6
:1012E000103A1823B2FBF3F000F007020C4B9A5CA3
:1012F000CA65032805D90A686FF30902121D8A65B9
:1013000003E00A686FF309028A6503E0086820F0C9
:10131000FF008865886D704710000240100402408D
:10132000FC38010810B502682B4C0368A34222D098
:10133000294C14340368A3421DD0274C2834036879
:10134000A34218D0244C3C340368A34213D0224C4F
:1013500050340368A3420ED01F4C64340368A34288
:1013600009D01D4C78340368A34204D01A4C8C3445
:101370000368A34201D1012300E000238BB103786D
:10138000083B1424B3FBF4F1144B03EB8103036615
:10139000124B8033436601F01F040123A340836690
:1013A00018E00378103B1824B3FBF4F10C4B9A427D
:1013B00004D80B4BA83B9A4200D30831094B03EBEE
:1013C00081030366074B8033436601F01F0401234A
:1013D000A340836610BD000008540258005802580C
:1013E000B8040240000802400179A9B3082940D896
:1013F000204B02689A4222D01E4B143302689A4254
:101400001DD01C4B283302689A4218D0194B3C332C
:1014100002689A4213D0174B503302689A420ED09A
:10142000144B643302689A4209D0124B7833026835
:101430009A4204D00F4B8C3302689A4201D10122A8
:1014400000E000224AB14A1E0B4B03EB8202C26647
:10145000094A4032026708E00BE04A1E074B03EBE3
:101460008202C266054A403202674A1E0123934047
:101470004367704708540258005902580009024057
:10148000014600208A69D2B98A6A32B1012A0DD098
:10149000022A03D0032A10D10EE000BFCA6A02F06C
:1014A0008072B2F1807F00D1012007E0CA6AB2F1F8
:1014B000C07F00D1012001E000E000BF36E08A6972
:1014C000B2F5005F1BD18A6A32B1012A07D0022A25
:1014D00003D0032A11D10AE000BF01200EE0CA6A3E
:1014E00002F08072B2F1807F00D1012006E0CA6A6A
:1014F000B2F1C07F00D1012000E000BF16E08A6A8F
:1015000032B1012A05D0022A04D0032A0CD103E00B
:1015100000BF00BF012008E0CA6A02F08072B2F189
:10152000807F00D1012000E000BF00BF70470000B5
:10153000F0B5856D846D984F0668BE4270D0964FA9
:1015400018370668BE426BD0934F30370668BE42EC
:1015500066D0914F48370668BE4261D08E4F6037E3
:101560000668BE425CD08C4F78370668BE4257D0C2
:10157000894F90370668BE4252D0874FA837066819
:10158000BE424DD0854F0668BE4249D0834F1837C2
:101590000668BE4244D0814F30370668BE423FD015
:1015A0007E4F48370668BE423AD07C4F60370668A7
:1015B000BE4235D0794F78370668BE4230D0774F7B
:1015C00090370668BE422BD0744FA8370668BE42DB
:1015D00026D0734F0668BE4222D0714F143706687A
:1015E000BE421DD06E4F28370668BE4218D06C4FE1
:1015F0003C370668BE4213D0694F50370668BE427A
:101600000ED0674F64370668BE4209D0644F783702
:101610000668BE4204D0624F8C370668BE4201D1D4
:10162000012600E000263EB1D0E919767E60C66E44
:1016300016B1D0E91C767E60574F0668BE4249D08D
:10164000554F18370668BE4244D0534F30370668AE
:10165000BE423FD0504F48370668BE423AD04E4F48
:1016600060370668BE4235D04B4F78370668BE42B9
:1016700030D0494F90370668BE422BD0464FA8372E
:101680000668BE4226D0454F0668BE4222D0434F70
:1016900018370668BE421DD0404F30370668BE423C
:1016A00018D03E4F48370668BE4213D03B4F6037D4
:1016B0000668BE420ED0394F78370668BE4209D060
:1016C000364F90370668BE4204D0344FA8370668BC
:1016D000BE4201D1012600E00026DEB190F85C6038
:1016E00006F01F073F26BE40AE600668366826F447
:1016F000802607683E60066873608668402E04D1C5
:101700000668B2600668F16044E00668B160066889
:10171000F2603FE0224F0668BE4222D0204F1437CD
:101720000668BE421DD01E4F28370668BE4218D03C
:101730001B4F3C370668BE4213D0194F503706681E
:10174000BE420ED0164F64370668BE4209D0144F11
:1017500078370668BE4204D0114F8C370668BE4207
:1017600001D1012600E00026A6B190F85C6006F0E9
:101770001F070126BE406660066873608668402EBB
:1017800004D10668B2600668F16003E00668B160E3
:101790000668F260F0BD0000100002401004024034
:1017A00008540258704748607047000070B50446FE
:1017B0000D4628211448FFF719F800201CE014F802
:1017C0003010114A02F8201004EBC00149880122B0
:1017D00002EB80020C4B995404EBC0014988C1F321
:1017E0000721022202EB80029954FF21032202EB1F
:1017F00080029954411CC8B2A842E0DBAA00024909
:1018000060680BF01BFC70BD4801002470B50446F5
:101810000D4628211448FEF7E9FF00201CE014F8CB
:101820003010114A02F8201004EBC001498801224F
:1018300002EB80020C4B995404EBC0014988C1F3C0
:101840000721022202EB80029954FF21032202EBBE
:1018500080029954411CC8B2A842E0DBAA000249A8
:1018600060680BF0EBFB70BD7001002430B50146E1
:10187000088B431C08680068426A0869151A5C08EE
:10188000A54203DD4869401E486105E0604285428B
:1018900002DA4869401C48610A61486900FB03207C
:1018A00030BD2DE9F0412DED028B04460D46164664
:1018B0001F46B0EE408A25606660A76084ED038A0B
:1018C00020680068C06A2083208B00F10108002096
:1018D000206160613C21206809F0E0FA0020216865
:1018E00009684862BDEC028BBDE8F0810022036804
:1018F0001B685A6202614261044B1A60044B1A6011
:101900009FED040A81ED000A7047000028010024C1
:101910002C010024000000002DE9F0472DED0A8B7A
:1019200005460C46B0EE408A16461F469FED470A14
:10193000C8EE000AB7EEE00A9FED451B20EE010B52
:10194000B7EEC00BB0EE408A2846FFF78FFF804607
:101950002046FFF78BFF81463F480068A8EB000058
:1019600008EE900A3D480068A9EB000009EE100A55
:1019700095ED030AB7EEC00A9FED351B20EE011B63
:1019800095ED010AB8EE400B21EE001B95ED020A21
:10199000B8EE400B81EE002BB7EEC20BF0EE40AA82
:1019A00094ED030AB7EEC00A9FED291B20EE011B40
:1019B00094ED010AB8EE400B21EE001B94ED020AF3
:1019C000B8EE400B81EE002BB7EEC20BB0EE40BA82
:1019D000B8EEE80A20EE2A0AF0EE409AB8EEC90AFC
:1019E00020EE0B0AB0EE40AAB0EE480A11F02EF835
:1019F00060EE29CAB0EE480A11F05EFA4AEE40CA1B
:101A0000F0EE6CBAB0EE480A11F056FA60EE29CA50
:101A1000B0EE480A11F01AF84AEE00CAB0EE6CCAED
:101A200096ED000A30EE2B0A86ED000A97ED000ACB
:101A300030EE0C0A87ED000A0748C0F8008007481E
:101A4000C0F80090BDEC0A8BBDE8F087000034437D
:101A5000182D4454FB210940280100242C010024A6
:101A600072B600BFFEE708807047000010B501465F
:101A70004A6B0868D0F884004FF6FC74A04340EA33
:101A800082000C68C4F884000868D0F8840020F450
:101A90007F04088F44EA00400C68C4F88400886B17
:101AA00002440868D0F888004FF6FC74A04340EA6E
:101AB00082000C68C4F888000868D0F8880020F418
:101AC000FE04888F44EA00400C68C4F88800C86BA4
:101AD00002EB40020868D0F8A0004FF6FC74A04367
:101AE00040EA82000C68C4F8A0000868D0F8A000A2
:101AF00020F4FE044020405A44EA00400C68C4F838
:101B0000A000D1E9104004FB00220868D0F8B00022
:101B10004FF6FC74A04340EA82000C68C4F8B000A1
:101B20000868D0F8B00020F4FE04B1F8480044EA98
:101B300000400C68C4F8B000D1E9124004FB002258
:101B40000868D0F8AC004FF6FC74A04340EA82006D
:101B50000C68C4F8AC00D1E9144004FB002208680A
:101B6000D0F8F0004FF6FC74A04340EA82000C6805
:101B7000C4F8F0000868D0F8F00020F47C14B1F844
:101B8000580044EA00400C68C4F8F000886D02EB8D
:101B900040020868D0F8C0004FF6FC74A04340EA49
:101BA00082000C68C4F8C0000868D0F8C00020F4B7
:101BB0007C14B1F85C0044EA00400C68C4F8C00032
:101BC0000868D0F8C00020F07C5491F8600044EA26
:101BD00000600C68C4F8C0002A4C486B04EB80001D
:101BE000C866CC6E886B04EB80040C670C6FC86B06
:101BF00004EBC0044C67D1E9100460434C6F04EB64
:101C000080048C67D1E9120460438C6F04EB80047C
:101C1000CC67D1E914046043CC6F04EB80048020CE
:101C200044504458886D04EBC004842044508C6EAA
:101C3000C86D60438424645804EB800488204450B9
:101C40008C6E086E60438824645804EB80049020F6
:101C5000445040580C4CA04209D99831486840F093
:101C600020004860032001F89809012010BDCB6EC8
:101C700002E0002018601B1D902040589842F8D8C0
:101C80000020F3E700AC0040FCD3004070477047F1
:101C900070477047704700002DE9F04399B0054642
:101CA0000C464FF0000880492868884200D104E0C3
:101CB00040F662117DA011F025FB2068A0B12068DC
:101CC000012811D0206802280ED0206803280BD0EC
:101CD0002068052808D02068062805D02068072835
:101CE00002D02068092800D104E040F663116FA0FB
:101CF00011F008FB2068002837D0606838B16068B0
:101D0000B0F5004F03D06068B0F5404F00D104E05B
:101D100040F6661165A011F0F5FAA068F8B1A06868
:101D2000B0F5807F1BD0A068B0F5007F17D0A06809
:101D3000B0F5407F13D0A068B0F5806F0FD0A068D9
:101D4000B0F5A06F0BD0A068B0F5E06F07D0A06829
:101D5000B0F5006F03D0A068B0F5006F00D104E0CB
:101D600040F6671151A011F0CDFA00BF95F8500070
:101D7000012803D1022019B0BDE8F083012085F8C5
:101D8000500000BF002015901690474928688842EF
:101D900002D15548009001E000200090009850B911
:101DA000686D40F02000686500BF002085F8500095
:101DB00000BF0120DFE700980BF0A3FE074628686C
:101DC0000BF09FFE002861D1002F5FD136492868B3
:101DD000884203D044492868884201D1434800E042
:101DE00043480646206858B3B06820F44040616814
:101DF0000843B0602C492868884203D03A492868D3
:101E0000884201D1394800E039483849884209D12F
:101E100025480BF067FE814633480BF063FE49EA24
:101E2000000002E033480BF05DFE70BBA168206843
:101E30000843B16840F61F7291430843B0602BE03D
:101E4000B06820F44040B06017492868884203D049
:101E500025492868884201D1244800E024482349C4
:101E6000884209D110480BF03DFE81461E480BF018
:101E700039FE49EA000002E01E480BF033FE20B9AB
:101E8000B06840F61F718843B06005E0686D40F0AF
:101E9000200068654FF0010800BF002085F8500061
:101EA00000BF404667E70000002002402E2E2F446E
:101EB0007269766572732F53544D33324837787890
:101EC0005F48414C5F4472697665722F5372632F8D
:101ED00073746D3332683778785F68616C5F616402
:101EE000635F65782E6300000021024000230240FA
:101EF00000630258006002582DE9F84F05460C4671
:101F00004FF0000A00200090FE492868884207D060
:101F1000FD492868884203D0FC492868884200D1DE
:101F200004E040F60D31FAA011F0ECF960680628E3
:101F30003BD060680C2838D06068122835D06068C3
:101F4000182832D06068B0F5807F2ED06068B0F578
:101F5000837F2AD06068B0F5867F26D06068B0F5B0
:101F6000897F22D06068B0F58C7F1ED06068B0F5A4
:101F7000007F1AD040F206216068884215D0606860
:101F8000B0F5037F11D040F21221606888420CD076
:101F90006068B0F5067F08D06068B0F5407F04D077
:101FA00040F206316068884200D104E040F60E310C
:101FB000D7A011F0A7F9A068A0B1A068012811D09E
:101FC000A06802280ED0A06803280BD0A0680428BF
:101FD00008D0A068052805D0A068062802D0A0680F
:101FE000072800D104E040F60F31C9A011F08AF9AA
:101FF00040F2FF71E068884203D0D349E06888422C
:1020000000D104E04FF43161C1A011F07BF92069E7
:1020100004280AD0206940B12069012805D0206930
:10202000022802D02069032800D104E040F61131D3
:10203000B7A011F067F995F83800012814D161694B
:10204000E86B401CB1FBF0FB28680BF027FD410852
:102050004FF6FF70C840834500D815E040F61531B3
:10206000ABA011F04FF90FE028680BF017FD410805
:102070004FF6FF70C8406169884200D304E040F623
:102080002131A3A011F03EF92069042803D095F86E
:102090003800012800D004E040F627319CA011F060
:1020A00031F9A949E068884269D0206801285FD0E9
:1020B000A649206888425BD049002068884257D0F2
:1020C000A3492068884253D0A249206888424FD053
:1020D000A149206888424BD0A0492068884247D057
:1020E0009F492068884243D09E49206888423FD05B
:1020F0009D49206888423BD09C492068884237D05F
:102100009B492068884233D09A49206888422FD062
:102110009949206888422BD098492068884227D066
:1021200097492068884223D09649206888421FD06A
:102130009549206888421BD094492068884217D06E
:1021400093492068884213D09249206888420FD072
:102150009149206888420BD090492068884207D076
:102160008D492068884203D08D492068884200D17B
:1021700097E040F62C3166A011F0C4F891E0614977
:10218000286888422DD171492068884223D04900AF
:10219000206888421FD06E49206888421BD06D4954
:1021A0002068884217D06C492068884213D06F4954
:1021B000206888420FD06E49206888420BD06D4954
:1021C0002068884207D06F492068884203D06F4951
:1021D0002068884200D104E040F632314CA011F072
:1021E00091F849492868884229D15849206888428D
:1021F0001FD04900206888421BD05549206888427A
:1022000017D054492068884213D053492068884227
:102210000FD05649206888420BD055492068884223
:1022200007D054492068884203D058492068884222
:1022300000D104E040F6363135A011F063F833499F
:10224000286888422DD141492068884223D049001E
:10225000206888421FD03E49206888421BD03D49F3
:102260002068884217D03C492068884213D03F49F3
:10227000206888420FD03E49206888420BD03E49F2
:102280002068884207D03D492068884203D03C49F5
:102290002068884200D104E040F63C311CA011F0D7
:1022A00031F800BF95F85000012802D10220BDE8A6
:1022B000F88F012085F8500000BF28680BF01CFC47
:1022C00000286FD1206800F00040A8B92868C169D3
:1022D0002068C0F3130018B92068C0F3846004E0DC
:1022E000206890FAA0F0B0FA80F000F01F02012000
:1022F000904001432868C1612968D4E9002001F1B8
:10230000300C50E0002002400021024000600258E2
:102310002E2E2F447269766572732F53544D3332CB
:10232000483778785F48414C5F4472697665722F10
:102330005372632F73746D3332683778785F6861D6
:102340006C5F6164632E63000000FF47020030048D
:102350000800900C1000C0102000F014400020195C
:102360008000501D000180210002B0250004002AD9
:102370000008302E00106032002090360040C03A35
:102380000080F03E00002143000052470000844BD3
:102390000000B84F000084CB000052C7000021C3EA
:1023A0000000B8CF51E2C0F3012B0CEB8B03D3F844
:1023B00000C000F01F0E4FF01F0B0BFA0EFB2CEAB3
:1023C0000B0C00F01F0BC2F3846E0EFA0BFE4CEAEE
:1023D0000E0CC3F800C000BF28680BF08DFB8146CF
:1023E00028680BF075FB8046B9F1000F78D1B8F181
:1023F000000FFBD1A268216828680BF090FBFE4813
:10240000006800F07040B0F1805F07D16069296812
:10241000C968C1F382014900884014E02868C06897
:1024200000F0100038B960692968C968C1F38201F9
:102430004900884007E060692968C96801F0100117
:1024400089084900884007462069042857D0286831
:102450002268216900F1600C0CEB8103D3F800C005
:102460000CF0004C02F0F84B4BEA070B4CEA0B0C5B
:10247000C3F800C000BF607E10B1607E012800D1AB
:1024800005E040F68A31AFF2781010F03BFF286883
:10249000627E2169012A01D1D20700E000221346A1
:1024A00000F1600C0CEB8102D2F800C02CF0004C63
:1024B0004CEA030CC2F800C000BF207E10B1207EA1
:1024C000012800D105E040F68E31AFF2BC1010F0CB
:1024D00019FF2868237E2169012B02D1DB0201E06C
:1024E00045E000231A46036923F4F04301F01F0C72
:1024F00002FA0CFC43EA0C03036100BF37E02868D2
:10250000006E00F0F8402178B0EB816F05D12868AB
:10251000006E20F00040296808662868406E00F0D0
:10252000F8402178B0EB816F05D12868406E20F02B
:102530000040296848662868806E00F0F8402178DD
:10254000B0EB816F05D12868806E20F000402968CB
:1025500088662868C06E00F0F8402178B0EB816F83
:1025600005D12868C06E20F000402968C866286838
:102570000BF0B3FA002870D12868E2682168D0F81F
:10258000C0C0C1F313032CEA030C02F0180B9B4BE1
:1025900023FA0BF30B404CEA030CC0F8C0C000BF99
:1025A0009749E06888427DD12368C3F313031BB9C0
:1025B0002368C3F3846304E0236893FAA3F3B3FAB4
:1025C00083F35B1C03F01F03092B3ED82368C3F37E
:1025D00013031BB92368C3F3846304E0236893FAED
:1025E000A3F3B3FA83F35B1C03F01F034FF0010C5A
:1025F0000CFA03FC2368C3F313031BB92368C3F36A
:10260000846304E0236893FAA3F3B3FA83F35B1CB7
:1026100003F01F034CEA836C2368C3F313031BB955
:102620002368C3F3846304E0236893FAA3F3B3FA43
:1026300083F35B1C03F01F0303EB43034FF0000B1A
:102640004BEA03534CEA030341E02368C3F313034B
:1026500023B92368C3F3846305E07FE0236893FA1A
:10266000A3F3B3FA83F35B1C03F01F034FF0010CD9
:102670000CFA03FC2368C3F313031BB92368C3F3E9
:10268000846304E0236893FAA3F3B3FA83F35B1C37
:1026900003F01F034CEA836C2368C3F313032BB9C5
:1026A000236800E018E0C3F3846304E0236893FA2E
:1026B000A3F3B3FA83F35B1C03F01F030A3B03EBA2
:1026C00043034FF0007B4BEA03534CEA03031946E4
:1026D000A26828680BF023FA206800F00040E8B3F5
:1026E000484A2968914203D0474A2968914201D15A
:1026F000464900E046490846816801F0E07600BF9F
:1027000040492868884203D03F492868884201D15F
:102710003E4800E03E483D49884209D139480BF027
:10272000DCF9834638480BF0D8F94BEA000002E0A8
:1027300038480BF0D2F9E8BB37492068884228D1E5
:1027400006F4000028BB33492868884206D12D4B87
:102750002A689A4205D02C4B2A6800E036E09A425B
:1027600001D12A4A00E02A4A104646F400010BF043
:10277000EAF92A4800682A49B0FBF1F0401C400001
:10278000009002E00098401E009000980028F9D1C7
:1027900061E024492068884219D106F08070B0B900
:1027A0001C492868884256D1164B2A689A4205D09F
:1027B000154B00E042E02A689A4201D1134A00E03A
:1027C000134A104646F080710BF0BDF943E01649FC
:1027D000206888423FD106F4800038BB0D49286844
:1027E000884238D1074B2A689A4203D0064B2A68A0
:1027F0009A421CD1054A1BE00010005CFFFF0F004D
:102800000000FF4700200240002102400023024058
:102810000063025800600258000084CB400100248D
:10282000400D0300000052C70000B8CF13E00D4A6E
:10283000104646F480010BF086F90CE0686D40F01C
:10284000200068654FF0010A05E0686D40F0200047
:1028500068654FF0010A00BF002085F8500000BFF6
:10286000504624E500630258704770472DE9F84F41
:102870000446002000902068056820684668DD4A0C
:102880002168914203D0DC4A2168914201D1DB49A1
:1028900000E0DB4908460BF0FCF80746D549206804
:1028A000884207D0D4492068884203D0D54920689F
:1028B000884200D104E040F64511D3A010F022FD7B
:1028C0002069042802D02069082800D104E040F6DD
:1028D0004611CDA010F016FD05F00200022811D11E
:1028E00006F0020002280DD1606D00F0100018B94A
:1028F000606D40F4006060652046FFF7C7F9022074
:102900002168086005F00400042803D106F00400E3
:10291000042807D005F0080008285ED106F008005A
:1029200008285AD1606D00F0100018B9606D40F4AD
:102930000070606520680BF0E9F8E8B3AE492068E4
:10294000884201D1AB4800E020682168884204D069
:102950001FB1052F01D0092F03D12068D0F80C80BA
:1029600009E0A5492068884201D1A24800E020681A
:102970008346DBF80C8008F40050B0F5005F26D0E9
:102980002068006800F00800082820D120680BF0BB
:10299000B3F8A0B92068406820F00C0021684860B6
:1029A000606D20F480706065606D00F4805018B92F
:1029B000606D40F0010000E009E0606507E0606DD7
:1029C00040F010006065A06D40F00100A065204659
:1029D000FFF74AFF0C202168086005F0200020283E
:1029E00003D106F02000202807D005F04000402841
:1029F00070D106F0400040286CD1606D00F01000EE
:102A000018B9606D40F4005060652068C16C01F435
:102A1000C07109B9012100E000218A4600BF206889
:102A20000BF074F8814674492068884201D17148DE
:102A300000E020682168884204D01FB1062F01D031
:102A4000072F03D12068D0F80C8009E06A4920687C
:102A5000884201D1674800E020688346DBF80C809B
:102A6000BAF1000F30D008F0007028B1B9F1000FB2
:102A70002AD008F4005038BB2068006800F04000FD
:102A8000402821D108F40010F0B920680BF020F89C
:102A900090B92068406820F0600021684860606D4F
:102AA00020F480506065606D00F4807060B9606DE6
:102AB00040F00100606507E0606D40F01000606567
:102AC000A06D40F00100A0652046FFF7E0F860200F
:102AD0002168086005F0800080280DD106F0800094
:102AE000802809D1606D40F480306065204600F098
:102AF000CBFB80202168086005F48070B0F5807FF2
:102B00000FD106F48070B0F5807F0AD1606D40F47B
:102B1000003060652046FFF7BCF84FF480702168F4
:102B2000086005F40070B0F5007F0FD106F4007066
:102B3000B0F5007F0AD1606D40F4802060652046CA
:102B4000FFF7A8F84FF400702168086005F0100046
:102B5000102833D106F0100010282FD1206B10B9A7
:102B60000120009019E08FB1224A2168914203D0E0
:102B7000214A2168914201D1204900E020490846BC
:102B80000AF082FF48B10120009006E02068C0688A
:102B900000F0030008B101200090009801280AD13C
:102BA000606D40F480606065A06D40F00200A0653B
:102BB0002046FFF75AFE10202168086005F4806067
:102BC000B0F5806F13D106F48060B0F5806F0ED140
:102BD000606D40F480406065A06D40F00800A06525
:102BE0004FF48060216808602046FFF751F8BDE887
:102BF000F88F000000200240002102400023024024
:102C000000630258006002582E2E2F4472697665C8
:102C100072732F53544D3332483778785F48414CA4
:102C20005F4472697665722F5372632F73746D33CC
:102C300032683778785F68616C5F6164632E630027
:102C40002DE9F84F04464FF000090020009014B918
:102C50000120BDE8F88FFD492068884207D0FC4973
:102C60002068884203D0FB492068884200D104E0F4
:102C700040F2A711F8A010F045FB6068B0F5803F66
:102C800035D06068B0F5003F31D06068B0F5403FA6
:102C90002DD0606858B36068B0F5802F27D0606889
:102CA000B0F5002F23D06068B0F5402F1FD06068CA
:102CB000B0F5801F1BD06068B0F5A01F17D060680A
:102CC000B0F5C01F13D06068B0F5E01F0FD060688A
:102CD000B0F5001F0BD06068B0F5101F07D060681A
:102CE000B0F5201F03D06068B0F5301F00D104E0BC
:102CF0004FF4D471D8A010F005FBA06888B1A0688B
:102D000004280ED0A06814280BD0A068082808D08A
:102D1000A068182805D0A0680C2802D0A068102848
:102D200000D104E040F2A911CBA010F0EBFAE0686A
:102D300010B1E068012800D104E04FF4D571C6A0BD
:102D400010F0E0FA607D10B1607D012800D104E050
:102D500040F2AB11C0A010F0D5FAA06A58B1A06A39
:102D6000B0F5806F07D0A06AB0F5006F03D0A06AFD
:102D7000B0F5406F00D104E04FF4D671B6A010F06A
:102D8000C1FA606AB0F5806F51D0606AB0F5846FA7
:102D90004DD0606AB0F5886F49D0606AB0F58C6F2D
:102DA00045D0606AB0F5906F41D0606AB0F5946F1D
:102DB0003DD0606AB0F5986F39D0606AB0F59C6F0D
:102DC00035D0606AB0F5A06F31D0606AB0F5A46FFD
:102DD0002DD0606AB0F5A86F29D0606AB0F5AC6FED
:102DE00025D0606AB0F5B06F21D0606AB0F5B46FDD
:102DF0001DD0606AB0F5B86F19D0606AB0F5BC6FCD
:102E000015D0606AB0F5C06F11D0606AB0F5C46FBC
:102E10000DD0606AB0F5C86F09D0606AB0F5CC6FAC
:102E200005D0606AB0F5D06F01D0606A00B904E0E7
:102E300040F2AD1188A010F065FAE06A40B1E06A96
:102E4000022805D0E06A012802D0E06A032800D1F8
:102E500004E04FF4D77180A010F054FA20690428E0
:102E600002D02069082800D104E040F2AF117AA016
:102E700010F048FA206B18B1206BB0F5805F00D1DC
:102E800004E04FF4D87174A010F03CFA207D10B12A
:102E9000207D012800D104E040F2B1116EA010F0B5
:102EA00031FA94F8380018B194F83800012800D1AC
:102EB00004E04FF4D97168A010F024FAE06818B368
:102EC000A06918B1A069102800D804E04FF4DB71A4
:102ED00061A010F017FA207F10B1207F012800D1E7
:102EE00004E040F2B7115CA010F00CFA207F01283A
:102EF0000AD1206A18B1206A082800D804E040F2FC
:102F0000BB1155A010F0FEF9207F012802D1607D91
:102F1000012800D004E04FF4E0714FA010F0F2F966
:102F2000606D30B9204600F0B1F90020A06584F84A
:102F3000500020688168C1F3407131B12068816818
:102F4000534A1140816000BF00BF20680AF0CFFDE6
:102F5000A8B9206881684F4A114041F080518160D2
:102F600000BF4D4800684D49B0FBF1F0401C009097
:102F700002E00098401E009000980028F9D12068D7
:102F80000AF0B5FD48B9606D40F010006065A06DB5
:102F900040F00100A0654FF0010920680AF0ACFD87
:102FA0000646606D00F0100000284ED1002EFCD1C6
:102FB000606D20F4807040F00200606520680AF0C7
:102FC0008CFD78BB21492068884203D020492068C5
:102FD000884201D1324800E032483149884209D163
:102FE0001A480AF07AFD824619480AF076FD4AEA44
:102FF000000002E017480AF070FD98B9134B2268F0
:103000009A4203D0124B22689A4201D1244A00E02E
:10301000244A10466168826822F47C120A43826066
:1030200000BF00BF02F0F2FE41F2030188423ED928
:10303000A06810283BD1607D216B41EA4030A16837
:10304000084340F00C01207F2EE010E100200240F8
:1030500000210240006002582E2E2F4472697665CE
:1030600072732F53544D3332483778785F48414C50
:103070005F4472697665722F5372632F73746D3378
:1030800032683778785F68616C5F6164632E6300D3
:10309000C0FFFF5FC0FFFF7F40010024400D030021
:1030A000002302400063025841EA004508E0607DC9
:1030B000216B41EA4030A1680843217F40EA014585
:1030C000207F012803D1208C401E45EA4045606ADC
:1030D00028B1A08C00F47870A16A084305432068E9
:1030E000C0686749084028432168C86020680AF022
:1030F00003FD804620680AF0EBFC0746B8F1000F9C
:103100006FD1002FFCD1207DE16A41EA8035206833
:10311000C06844F20301884328432168C86094F8DA
:103120003800012878D1E06B20B1E06BB0F5806FFA
:1031300000D805E04FF43071AFF2E40010F0E2F88F
:10314000206C20B3206C202821D0206C40281ED079
:10315000206C60281BD0206C802818D0206CA02800
:1031600015D0206CC02812D0206CE0280FD0206C25
:10317000B0F5807F0BD0206CB0F5907F07D0206C2D
:10318000B0F5A07F03D0206CB0F5B07F00D105E092
:1031900040F2C221AFF2401010F0B4F8606C18B1E8
:1031A000606CB0F5007F00D105E040F2C321AFF2C2
:1031B000581010F0A7F8A06C012804D040F201418B
:1031C000A06C884200D105E04FF43171AFF2781065
:1031D00010F098F8606A08B1A06A48B9606C08B944
:1031E00006E02AE040F2CA21AFF2941010F08AF80B
:1031F000A08F401E012141EA0041206C0843616C10
:103200000843A16C0843216809691E4A114008431C
:103210002168086106E0FFE72068006920F00100EE
:10322000216808612068006920F07040616B0843E4
:10323000216808612046FDF7E3FCE068012809D118
:103240002068006B20F00F00A169491E0843216827
:10325000086305E02068006B20F00F002168086318
:10326000606D20F0020040F00100606505E0606DD7
:1032700040F0100060654FF001094846E9E40000A5
:1032800003C0F0FF1EF800FC7047000010B5B8B096
:103290000446142132A8FDF7CBFAC02102A8FDF79D
:1032A000C7FA3F492068884278D14FF400210020B6
:1032B000CDE90210032004900A2105910221069114
:1032C00007910891C021099120210A9100210B91B9
:1032D00000202B9002A804F0CFFA08B1FEF7C0FB43
:1032E00000BF3048006840F020002E4908600846C2
:1032F000006800F02000019000BF00BF00BF294817
:103300000830006840F0010026490831086008468E
:10331000006800F00100019000BF00BF00BF084638
:10332000006840F0040008600846006800F00400EF
:10333000019000BF00BF00BF0846006840F00200D7
:1033400008600846006800F00200019000BF00BF5E
:1033500040203290032033900020349032A912484C
:1033600002F03CFB30203290032033900020349058
:1033700032A90E4802F032FB022032900320339033
:103380000020349032A90A4802F028FB002211469E
:10339000122003F0B9F9122003F07CF938B010BD07
:1033A00000200240D8440258000002580008025889
:1033B000000402582DE9F041044602F02DFD80463C
:1033C00014B90120BDE8F08194F83500022808D036
:1033D0008020606500BF002084F8340000BF012019
:1033E000F0E7FE492068884249D0FC49183120683E
:1033F000884244D0F9493031206888423FD0F749AB
:103400004831206888423AD0F449603120688842C7
:1034100035D0F24978312068884230D0EF49903178
:10342000206888422BD0ED49A8312068884226D0F8
:10343000EB492068884222D0E94918312068884247
:103440001DD0E74930312068884218D0E44948311E
:103450002068884213D0E2496031206888420ED04B
:10346000DF4978312068884209D0DD4990312068F1
:10347000884204D0DA49A8312068884201D101206D
:1034800000E0002068B12068006820F01E0021687C
:1034900008602068406920F0800021684861256844
:1034A00006E02068006820F00E00216808602568AA
:1034B000CA492068884270D0C849183120688842BB
:1034C0006BD0C64930312068884266D0C349483144
:1034D0002068884261D0C1496031206888425CD050
:1034E000BE4978312068884257D0BC499031206865
:1034F000884252D0B949A831206888424DD0B84995
:103500002068884249D0B64918312068884244D0A2
:10351000B3493031206888423FD0B14948312068F2
:1035200088423AD0AE4960312068884235D0AC49F3
:1035300078312068884230D0A9499031206888428B
:103540002BD0A749A8312068884226D0A5492068F9
:10355000884222D0A3491431206888421DD0A14955
:1035600028312068884218D09E493C312068884222
:1035700013D09C495031206888420ED0994964315B
:103580002068884209D0974978312068884204D061
:1035900094498C312068884201D1012000E000204C
:1035A00028B1206E006820F48070216E08608B497D
:1035B0002068884249D0894918312068884244D01F
:1035C00086493031206888423FD08449483120689C
:1035D00088423AD0814960312068884235D07F499D
:1035E00078312068884230D07C4990312068884208
:1035F0002BD07A49A8312068884226D078492068A3
:10360000884222D076491831206888421DD07449FA
:1036100030312068884218D071494831206888428A
:1036200013D06F496031206888420ED06C497831E0
:103630002068884209D06A4990312068884204D0C5
:103640006749A8312068884206D12068006820F0C8
:1036500001002168086005E02068006820F0010092
:103660002168086011E002F0D7FBA0EB08000528F4
:103670000BD920206065032084F8350000BF0020AE
:1036800084F8340000BF01209CE6286800F00100A7
:103690000028E8D151492068884249D04F49183163
:1036A0002068884244D04D493031206888423FD05C
:1036B0004A494831206888423AD0484960312068F8
:1036C000884235D0454978312068884230D0434916
:1036D0009031206888422BD04049A8312068884228
:1036E00026D03F492068884222D03D4918312068C1
:1036F00088421DD03A4930312068884218D0384974
:1037000048312068884213D03549603120688842AA
:103710000ED0334978312068884209D03049903141
:103720002068884204D02E49A8312068884201D1FF
:10373000012000E0002040B1A66D94F85C0000F08C
:103740001F013F208840B06007E0A76D94F85C003F
:1037500000F01F01012088407860204920688842DD
:1037600076D01E4918312068884271D01B4930310B
:10377000206888426CD0194948312068884267D057
:10378000164960312068884262D014497831206837
:1037900088425DD0114990312068884258D00F4945
:1037A000A8312068884253D00D49206888424FD004
:1037B0000B491831206888424AD0094930312068C5
:1037C000884245D0064948312068884240D00449A3
:1037D0006031206888423BD0014905E0100002407A
:1037E00010040240085402587831206888422FD0D3
:1037F0002549206888422BD0234918312068884207
:1038000026D022492068884222D0204914312068DD
:1038100088421DD01D4928312068884218D01B4994
:103820003C312068884213D01849503120688842C2
:103830000ED0164964312068884209D01349783186
:103840002068884204D011498C312068884201D117
:10385000012000E0002068B1D4E919104860E06E52
:1038600040B1E06E006820F48070E16E0860D4E939
:103870001C104860012084F8350000BF002084F847
:10388000340000BF00BF9DE5A00402400854025868
:1038900070B504460CB9012070BD94F835000228BB
:1038A00003D0802060650120F6E7DC49206888426B
:1038B00049D0DA4918312068884244D0D74930319C
:1038C000206888423FD0D5494831206888423AD0A4
:1038D000D24960312068884235D0D049783120689B
:1038E000884230D0CD499031206888422BD0CB49D6
:1038F000A8312068884226D0C9492068884222D051
:10390000C7491831206888421DD0C5493031206828
:10391000884218D0C24948312068884213D0C04933
:103920006031206888420ED0BD49783120688842D5
:1039300009D0BB4990312068884204D0B849A831E9
:103940002068884201D1012000E00020F0B304206B
:1039500084F83500B149206888424BD0AF4918310E
:103960002068884246D0AD4930312068884241D035
:10397000AA494831206888423CD0A8496031206873
:10398000884237D0A54978312068884232D0A3498F
:103990009031206888422DD0A049A8312068884203
:1039A00028D09F492068884224D09D49183120683A
:1039B00088421FD09A493031206888421AD09849ED
:1039C00048312068884215D0954900E020E06031F8
:1039D000206888420ED0924978312068884209D008
:1039E0008F4990312068884204D08D49A8312068E1
:1039F000884206D12068006820F001002168086034
:103A000009E12068006820F001002168086002E1F7
:103A10002068006820F00E00216808607F49206857
:103A2000884249D07D4918312068884244D07B497A
:103A30003031206888423FD0784948312068884238
:103A40003AD0764960312068884235D07349783160
:103A50002068884230D071499031206888422BD04C
:103A60006E49A8312068884226D06D492068884276
:103A700022D06B491831206888421DD06849303106
:103A80002068884218D0664948312068884213D09F
:103A900063496031206888420ED0614978312068DE
:103AA000884209D05E4990312068884204D05C4940
:103AB000A8312068884206D12068006820F0010003
:103AC0002168086005E02068006820F00100216896
:103AD000086052492068884270D0504918312068E7
:103AE00088426BD04D4930312068884266D04B49BE
:103AF00048312068884261D0484960312068884256
:103B00005CD0464978312068884257D0434990318B
:103B10002068884252D04149A831206888424DD05F
:103B20003F492068884249D03D4918312068884281
:103B300044D03B493031206888423FD03849483131
:103B4000206888423AD0364960312068884235D0B2
:103B5000334978312068884230D03149903120682B
:103B600088422BD02E49A8312068884226D02D4982
:103B70002068884222D02B491431206888421DD009
:103B8000284928312068884218D026493C312068CD
:103B9000884213D023495031206888420ED02149F1
:103BA00064312068884209D01E49783120688842F3
:103BB00004D01C498C312068884201D1012000E0EA
:103BC0000020D8B1206E006820F48070216E08605B
:103BD000A56D94F85C0000F01F010120884068602A
:103BE000D4E919104860E06E40B1E06E006820F43E
:103BF0008070E16E0860D4E91C104860012084F8F0
:103C0000350000BF002084F8340000BF206D10B1E3
:103C10002046216D884700203EE60000100002404B
:103C200010040240085402580146486D70470000D5
:103C30002DE9F84F044600200090FE4800684FF43C
:103C40001651B0FBF1FAA66DD4F858803768D8F851
:103C50000090F9492068884249D0F7491831206816
:103C6000884244D0F4493031206888423FD0F2493C
:103C70004831206888423AD0EF4960312068884254
:103C800035D0ED4978312068884230D0EA4990310A
:103C9000206888422BD0E849A8312068884226D085
:103CA000E6492068884222D0E449183120688842D9
:103CB0001DD0E24930312068884218D0DF494831B0
:103CC0002068884213D0DD496031206888420ED0D8
:103CD000DA4978312068884209D0D8499031206883
:103CE000884204D0D549A8312068884201D10120FA
:103CF00000E0002000287DD094F85C0000F01F0157
:103D0000082088403840002868D0CB492068884285
:103D100049D0C94918312068884244D0C649303159
:103D2000206888423FD0C4494831206888423AD050
:103D3000C14960312068884235D0BF497831206858
:103D4000884230D0BC499031206888422BD0BA4993
:103D5000A8312068884226D0B8492068884222D0FD
:103D6000B6491831206888421DD0B44930312068E6
:103D7000884218D0B14948312068884213D0AF49F1
:103D80006031206888420ED0AC4978312068884282
:103D900009D0AA4990312068884204D0A749A831A7
:103DA0002068884204D12068006800F0040003E025
:103DB0002068006800F0080080B12068006820F0EA
:103DC00004002168086094F85C0000F01F010820DE
:103DD0008840B060606D40F00100606594F85C0060
:103DE00000F01F01012088403840E8B39249206864
:103DF000884200E0B7E24BD08F49183120688842F2
:103E000046D08D4930312068884241D08A494831B6
:103E1000206888423CD0884960312068884237D089
:103E2000854978312068884232D0834990312068B2
:103E300088422DD08049A8312068884228D07F4907
:103E40002068884224D07D491831206888421FD0DC
:103E50007A493031206888421AD078494831206840
:103E6000884215D0754900E026E06031206888421C
:103E70000ED0724978312068884209D06F4990315C
:103E80002068884204D06D49A8312068884204D156
:103E90002068406900F0800002E02068006800208F
:103EA00050B194F85C0000F01F0101208840B06020
:103EB000606D40F00200606594F85C0000F01F0146
:103EC000042088403840E8B35B49206888424BD0E2
:103ED000594918312068884246D057493031206806
:103EE000884241D054494831206888423CD05249E8
:103EF00060312068884237D04F4978312068884245
:103F000032D04D499031206888422DD04A49A8319D
:103F10002068884228D049492068884224D04749EF
:103F20001831206888421FD04449303120688842C7
:103F30001AD0424948312068884215D03F49603143
:103F4000206800E024E088420ED03C4978312068A7
:103F5000884209D0394990312068884204D03749D5
:103F6000A8312068884204D12068006800F002006F
:103F700002E020680068002050B194F85C0000F076
:103F80001F0104208840B060606D40F0040060654F
:103F900094F85C0000F01F01102088403840E8B31E
:103FA00025492068884251D0234918312068884229
:103FB0004CD0214930312068884247D01E494831D1
:103FC0002068884242D01C496031206888423DD038
:103FD000194978312068884238D0174990312068D3
:103FE000884233D01449A831206888422ED0134922
:103FF000206888422AD0114918312068884225D08B
:104000000E4930312068884220D00C494831206860
:1040100088421BD009496031206800E04DE08842A9
:1040200014D006497831206888420FD00349903176
:10403000206805E040010024100002401004024006
:10404000884203D0FE492068884204D12068006875
:1040500000F0080003E02068006800F0040060B38E
:1040600094F85C0000F01F0110208840B0602068C8
:10407000006800F4802080B12068006800F400200F
:1040800028B9206CC8B12046216C884715E0A06C87
:1040900098B12046A16C88470FE02068006800F4C2
:1040A000807028B92068006820F008002168086046
:1040B000206C10B12046216C884794F85C0000F019
:1040C0001F0120208840384000287DD0DD4920682D
:1040D000884249D0DB4918312068884244D0D94908
:1040E0003031206888423FD0D64948312068884224
:1040F0003AD0D44960312068884235D0D1497831EE
:104100002068884230D0CF499031206888422BD037
:10411000CC49A8312068884226D0C949A8392068EE
:10412000884221D0C6499039206888421CD0C449B1
:1041300078392068884217D0C149603920688842A0
:1041400012D0BF494839206888420DD0BC49303967
:104150002068884208D0BA4918392068884203D0BC
:10416000B7492068884204D12068006800F0100038
:1041700003E02068006800F0020028B394F85C00B7
:1041800000F01F0120208840B06094F8350004281A
:104190002DD12068006820F0160021680860206892
:1041A000406920F0800021684861206C08B9A06C4B
:1041B00028B12068006820F008002168086094F8A1
:1041C0005C0000F01F0100E03FE03F208840B0604D
:1041D000012084F8350000BF002084F8340000BFBF
:1041E000206D10B12046216D8847BDE8F88F20680A
:1041F000006800F4802080B12068006800F400208E
:1042000028B9606C08B32046616C88471DE0E06BFC
:10421000D8B12046E16B884717E02068006800F4B9
:10422000807068B92068006820F01000216808607C
:10423000012084F8350000BF002084F8340000BF5E
:10424000E06B10B12046E16B8847606D00287AD0A2
:10425000606D00F00100E8B3042084F8350079496E
:10426000206888424BD0774918312068884246D070
:10427000744930312068884241D072494831206801
:1042800088423CD06F4960312068884237D06D4900
:1042900078312068884232D06A499031206888425B
:1042A0002DD06849A8312068884228D06449A839AF
:1042B0002068884223D062499039206888421ED005
:1042C0005F4978392068884219D05D496039206893
:1042D000884200E040E012D05949483920688842BD
:1042E0000DD0574930392068884208D054491839D0
:1042F0002068884203D052492068884206D120684D
:10430000006820F001002168086005E0206800686E
:1043100020F001002168086000BF0098401C009058
:10432000504500D905E02068006800F00100002831
:10433000F3D100BF2068006800F0010020B1032025
:1043400084F8350003E00DE0012084F8350000BF5B
:10435000002084F8340000BFE06C002802D0204622
:10436000E16C8847D9E138492068884222D0364933
:104370001431206888421DD0334928312068884292
:1043800018D031493C312068884213D02E49503131
:10439000206888420ED02C4964312068884209D0B8
:1043A000294978312068884204D027498C31206817
:1043B000884201D1012000E000200028D2D02068EE
:1043C000056894F85C0000F01F010420884000EAB2
:1043D0000900D8B305F00400C0B394F85C0000F005
:1043E0001F0104208840C8F8040005F4004080B193
:1043F00005F4803030B9A06C0028B3D02046A16C01
:1044000088478AE1206C0028ACD02046216C884780
:1044100083E105F02000E8BB0A492068884253D0B8
:1044200008491831206888424ED00649303120684A
:10443000884249D0034948312068884244D006E088
:10444000B804024010000240085402584FE0B4493A
:1044500060312068884237D0B1497831206888427D
:1044600032D0AF499031206888422DD0AC49A83174
:104470002068884228D0AB492068884224D0A949C6
:104480001831206888421FD0A64930312068884200
:104490001AD000E025E0A34948312068884213D0B3
:1044A000A0496031206888420ED09E49783120684A
:1044B000884209D09B4990312068884204D09949AC
:1044C000A8312068884206D12068006820F00800E2
:1044D0002168086005E02068006820F00400216879
:1044E0000860206C10B32046216C884715E194F8D1
:1044F0005C0000F01F010220884000EA0900E8B3D8
:1045000005F00200D0B394F85C0000F01F01022017
:104510008840C8F8040005F4004070B105F480300C
:1045200028B9606C10B12046616C8847F5E0E06BFB
:10453000F0B32046E16B8847EFE005F02000C0BBF8
:104540007749206888424ED07549183120688842E2
:1045500049D0734930312068884244D0704948318D
:10456000206888423FD06E496031206888423AD046
:104570006B4978312068884235D000E04EE06849C8
:104580009031206888422ED06549A8312068884241
:1045900029D064492068884225D0624918312068B2
:1045A000884220D05F493031206888421BD001E02A
:1045B0006EE02DE05B4948312068884213D05949AC
:1045C0006031206888420ED0564978312068884290
:1045D00009D0544990312068884204D05149A8310B
:1045E0002068884206D12068006820F01400216805
:1045F000086005E02068006820F00A002168086073
:10460000012084F8350000BF002084F8340000BF8A
:10461000E06BE8B32046E16B88477EE094F85C00ED
:1046200000F01F010820884000EA090080B305F06F
:10463000080068B33A49206888424BD0384918319D
:104640002068884246D0364930312068884241D0BF
:1046500033494831206888423CD031496031206874
:10466000884237D02E4978312068884232D02C4990
:104670009031206888422DD02949A831206888428D
:1046800028D028492068884224D02649183100E0E3
:1046900043E0206888421DD022493031206888429A
:1046A00018D0204948312068884213D01D49603114
:1046B000206888420ED01B4978312068884209D092
:1046C000184990312068884204D01649A8312068E2
:1046D000884206D12068006820F01C00216808602C
:1046E00005E02068006820F00E002168086094F85A
:1046F0005C0000F01F0101208840C8F80400012080
:10470000606584F8350000BF002084F8340000BFE5
:10471000E06C10B12046E16C884700BF65E5000001
:1047200010000240100402402DE9F041044601F05F
:1047300073FB804614B90120BDE8F081FA49206876
:10474000884270D0F8491831206888426BD0F64909
:1047500030312068884266D0F34948312068884269
:1047600061D0F1496031206888425CD0EE497831EF
:104770002068884257D0EC4990312068884252D056
:10478000E949A831206888424DD0E849206888422C
:1047900049D0E64918312068884244D0E349303195
:1047A000206888423FD0E1494831206888423AD0A9
:1047B000DE4960312068884235D0DC497831206894
:1047C000884230D0D9499031206888422BD0D749CF
:1047D000A8312068884226D0D5492068884222D056
:1047E000D3491431206888421DD0D149283120682E
:1047F000884218D0CE493C312068884213D0CC4939
:104800005031206888420ED0C949643120688842FE
:1048100009D0C74978312068884204D0C4498C3116
:104820002068884200D103E0E621C2A00EF06AFDB4
:10483000A06828B1A068402802D0A068802800D1D4
:1048400003E0E721BBA00EF05DFDE068B0F5007F5E
:1048500001D0E06800B903E0E821B6A00EF052FDF7
:104860002069B0F5806F01D0206900B903E0E9212B
:10487000B0A00EF047FD606938B16069B0F5006F17
:1048800003D06069B0F5805F00D103E0EA21A9A000
:104890000EF038FDA06938B1A069B0F5005F03D013
:1048A000A069B0F5804F00D103E0EB21A1A00EF08C
:1048B00029FDE06970B1E069B0F5807F0AD0E06958
:1048C000202807D0E069B0F5802F03D0E069B0F56B
:1048D000402F00D103E0EC2196A00EF013FD206ADA
:1048E00058B1206AB0F5803F07D0206AB0F5003F8C
:1048F00003D0206AB0F5403F00D103E0ED218DA048
:104900000EF000FD88492068884249D08649183158
:104910002068884244D084493031206888423FD0A2
:1049200081494831206888423AD07F496031206807
:10493000884235D07C4978312068884230D07A4925
:104940009031206888422BD07749A831206888426E
:1049500026D076492068884222D0744918312068D0
:1049600088421DD0714930312068884218D06F4983
:1049700048312068884213D06C49603120688842F1
:104980000ED06A4978312068884209D06749903151
:104990002068884204D06549A8312068884201D146
:1049A000012000E0002000287ED06068732800D835
:1049B00003E0F1215FA00EF0A5FC606A10B1606A0F
:1049C000042800D103E0F2215AA00EF09BFC606A9B
:1049D000002835D0A06A40B1A06A012805D0A06A9D
:1049E000022802D0A06A032800D103E0F72151A0D9
:1049F0000EF088FCE06A58B1E06AB0F5000F07D00D
:104A0000E06AB0F1807F03D0E06AB0F1C07F00D1EE
:104A100003E0F82147A00EF075FC206B58B1206B25
:104A2000B0F5001F07D0206BB0F5800F03D0206BCE
:104A3000B0F5C00F00D103E0F9213EA00EF062FCFA
:104A4000022084F8350000BF002084F8340000BF45
:104A50003549206888424BD0334918312068884254
:104A600046D0314930312068884241D02E49483102
:104A7000206888423CD02C4960312068884237D079
:104A8000294978312068884232D0274990312068FE
:104A900088422DD02449A8312068884228D0234953
:104AA0002068884224D000E0CBE0204918312068FB
:104AB00088421DD01D4930312068884218D01B49DA
:104AC00048312068884213D01849603120688842F4
:104AD0000ED0164978312068884209D013499031A8
:104AE0002068884204D01149A8312068884206D144
:104AF0002068006820F001002168086005E0206857
:104B0000006820F00100216808602FE001F084F9BE
:104B1000A0EB0800052829D920206065032084F82F
:104B20003500012008E60000100002401004024099
:104B3000085402582E2E2F447269766572732F53D3
:104B4000544D3332483778785F48414C5F4472693E
:104B50007665722F5372632F73746D3332683778B2
:104B6000785F68616C5F646D612E63002068006827
:104B700000F001000028C9D120680568D54805402B
:104B8000D4E9020108432169084361690843A16926
:104B90000843E1690843216A08430543606A042821
:104BA00003D1D4E90B0108430543CB4800686FF3F8
:104BB0000F00B0F1005F1DD36068292802D3606840
:104BC0002E2811D960683F2802D3606842280BD98B
:104BD0006068472802D36068482805D960684F2874
:104BE00004D36068522801D8012000E0002008B1F9
:104BF00045F48015206805602068456925F00705A3
:104C0000606A0543606A04280DD1A06A0543E06A22
:104C100048B12046FCF734FC28B1402060650120F3
:104C200084F8350088E5206845612046FCF704FBE0
:104C3000064694F85C0000F01F013F208840B060F9
:104C4000A7E0A6492068884222D0A44914312068F0
:104C500088421DD0A14928312068884218D09F4938
:104C60003C312068884213D09C49503120688842EA
:104C70000ED09A4964312068884209D0974978312A
:104C80002068884204D095498C312068884201D13F
:104C9000012000E0002070B390492068884222D0B3
:104CA0008E491431206888421DD08C4928312068F3
:104CB000884218D089493C312068884213D08749FE
:104CC0005031206888420ED084496431206888427F
:104CD00009D0824978312068884204D07F498C31DC
:104CE0002068884201D1012000E0002050B16068B6
:104CF000112801D806E045E040F26B11AFF2CC106C
:104D00000EF000FB022084F8350000BF002084F87C
:104D1000340000BF2068056871480540A06840283D
:104D200001D1102105E0A068802801D1C10100E077
:104D30000021E06841EAD001206941EAD0016069C0
:104D400041EAD001A06941EAD001E06941EAD0011D
:104D5000206A41EA10100543206805605F49206819
:104D6000401A1421B0FBF1F08000E0652046FCF70A
:104D700063FA074694F85C0000F01F0101208840A8
:104D8000786006E040206065032084F8350001204B
:104D9000D2E454492068884270D0524918312068C2
:104DA00088426BD04F4930312068884266D04D49E7
:104DB00048312068884261D04A4960312068884281
:104DC0005CD0484978312068884257D045499031B5
:104DD0002068884252D04349A831206888424DD08B
:104DE00041492068884249D03F49183120688842AB
:104DF00044D03D493031206888423FD03A4948315B
:104E0000206888423AD0384960312068884235D0DD
:104E1000354978312068884230D033499031206854
:104E200088422BD03049A8312068884226D02B49AF
:104E30002068884222D029491431206888421DD038
:104E4000264928312068884218D024493C312068FE
:104E5000884213D021495031206888420ED01F4922
:104E600064312068884209D01C4978312068884222
:104E700004D01A498C312068884201D1012000E019
:104E8000002000B32046FCF74DFAA068802801D12D
:104E9000002060602079216E0860D4E91910486014
:104EA000606860B16068082809D82046FCF79CFA61
:104EB0000020E16E0860D4E91C10486003E0002087
:104EC000E0662067606700206065012084F8350097
:104ED000002031E43F8010FE0010005C08540258AE
:104EE0000F00FEFF10000240100402402DE9F041C7
:104EF00004460E4617461D464FF000081DB1B5F595
:104F0000803F00D204E040F2AE21F2A00EF0FAF9A8
:104F100014B90120BDE8F08100BF94F834000128E5
:104F200001D10220F6E7012084F8340000BF94F894
:104F3000350001287ED1022084F83500002060650C
:104F4000F2492068884249D0F049183120688842E7
:104F500044D0EE493031206888423FD0EB49483197
:104F6000206888423AD0E94960312068884235D0CB
:104F7000E64978312068884230D0E4499031206891
:104F800088422BD0E149A8312068884226D0E049E8
:104F90002068884222D0DE491831206888421DD01E
:104FA000DB4930312068884218D0D949483120681F
:104FB000884213D0D6496031206888420ED0D44947
:104FC00078312068884209D0D149903120688842E0
:104FD00004D0CF49A8312068884206D120680068F3
:104FE00020F001002168086005E02068006820F0DA
:104FF0000100216808602B463A4631462046FCF7FE
:1050000097FAC249206888424BD0C04918312068BD
:10501000884246D0BD4930312068884241D0BB49E2
:105020004831206888423CD0B849603120688842C5
:1050300037D000E042E1B54978312068884230D06D
:10504000B2499031206888422BD0B049A8312068FD
:10505000884226D0AE492068884222D0AC49183117
:10506000206888421DD0AA4930312068884218D073
:10507000A74948312068884213D0A549603120688B
:1050800088420ED0A24978312068884209D0A049D0
:1050900090312068884204D09D49A8312068884218
:1050A00001D1012000E0002080B12068006820F0DC
:1050B0001E0040F0160021680860206CB0B1206826
:1050C000006840F00800216808600FE02068006870
:1050D00020F00E0040F00A0021680860206C28B122
:1050E0002068006840F00400216808608749206853
:1050F000884270D085491831206888426BD0834936
:1051000030312068884266D0804948312068884222
:1051100061D07E496031206888425CD07B4978311B
:105120002068884257D0794990312068884252D00F
:105130007649A831206888424DD075492068884258
:1051400049D0734918312068884244D070493031C1
:10515000206888423FD06E494831206888423AD062
:105160006B4960312068884235D0694978312068C0
:10517000884230D066499031206888422BD06449FB
:10518000A8312068884226D062492068884222D00F
:1051900060491431206888421DD05E49283120685A
:1051A000884218D05B493C312068884213D0594965
:1051B0005031206888420ED05649643120688842B8
:1051C00009D0544978312068884204D051498C3143
:1051D0002068884201D1012000E0002090B1206EBB
:1051E000006800F4803028B1206E006840F48070C0
:1051F000216E0860E06E28B1E06E006840F48070B7
:10520000E16E086041492068884249D03F49183121
:105210002068884244D03D493031206888423FD0E0
:105220003A494831206888423AD03849603120688C
:10523000884235D0354978312068884230D03349AA
:105240009031206888422BD03049A83120688842AC
:1052500026D02F492068884222D02D491831206855
:1052600088421DD02A4930312068884218D0284908
:1052700048312068884213D025496031206888422F
:105280000ED0234978312068884209D020499031D6
:105290002068884204D01E49A8312068884206D17F
:1052A0002068006840F001002168086010E0206874
:1052B000006840F001002168086009E04FF40060D8
:1052C000606500BF002084F8340000BF4FF0010883
:1052D00040461FE62E2E2F447269766572732F5357
:1052E000544D3332483778785F48414C5F44726997
:1052F0007665722F5372632F73746D33326837780B
:10530000785F68616C5F646D612E6300100002401D
:10531000100402400854025870B5044600F07CFDA9
:1053200006462546681C10B104480078054400BFB5
:1053300000F072FD801BA842FAD370BD3C0100242E
:1053400070B594B004464C22FC4901A8FBF71CFA46
:1053500014B9012014B070BDF9492068884203D106
:10536000206800F580706060F5492068884203D0AD
:10537000F4492068884200D104E040F23711F2A0DD
:105380000DF0C0FFA06838B1A068B0F5807F03D0F1
:10539000A068B0F5407F00D104E04FF49C71EAA012
:1053A0000DF0B0FFE06858B1E068012808D0E0686F
:1053B000022805D0E068032802D0E068042800D164
:1053C00004E040F23911E0A00DF09CFF207C10B108
:1053D000207C012800D104E04FF49D71DAA00DF08B
:1053E00091FF607C10B1607C012800D104E040F2A4
:1053F0003B11D5A00DF086FFA07C10B1A07C012848
:1054000000D104E04FF49E71CFA00DF07BFF6069E6
:1054100020B16069B0F5007F00D804E040F23D1192
:10542000C9A00DF06FFFA06918B1A069802800D84D
:1054300004E04FF49F71C4A00DF064FFE06920B157
:10544000E069B0F5807F00D804E040F23F11BEA0D3
:105450000DF058FF206A18B1206A802800D804E0B7
:105460004FF4A071B8A00DF04DFFA068B0F5407FDB
:105470002BD1606A18B1606A202800D804E040F29D
:105480004311B1A00DF03EFFA06A18B1A06A102828
:1054900000D804E04FF4A271ABA00DF033FFE06A36
:1054A00018B1E06A202800D804E040F24511A6A017
:1054B0000DF028FF206B18B1206B102800D804E0F5
:1054C0004FF4A371A0A00DF01DFFA06B802800D8A1
:1054D00004E04FF4A4719CA00DF014FFE06B402891
:1054E00000D804E040F2491197A00DF00BFF206CAA
:1054F000402800D804E04FF4A57193A00DF002FFFE
:10550000206CE8B1606C042814D0606C052811D0C0
:10551000606C06280ED0606C07280BD0606C0828E1
:1055200008D0606C0A2805D0606C0E2802D0606C30
:10553000122800D104E040F24D1183A00DF0E2FEEC
:10554000A06C402800D804E040F24F117EA00DF07E
:10555000D9FEA06CE8B1E06C042814D0E06C0528FA
:1055600011D0E06C06280ED0E06C07280BD0E06C60
:10557000082808D0E06C0A2805D0E06C0E2802D07C
:10558000E06C122800D104E04FF4A9716EA00DF078
:10559000B9FE206D402800D804E04FF4AA716AA03B
:1055A0000DF0B0FE206DE8B1606D042814D0606D80
:1055B000052811D0606D06280ED0606D07280BD02D
:1055C000606D082808D0606D0A2805D0606D0E282F
:1055D00002D0606D122800D104E040F257115AA0A9
:1055E0000DF090FEA06D202800D804E040F2591183
:1055F00055A00DF087FED4E917100844202800D8E4
:1056000004E04FF4AD7150A00DF07CFE206E58B157
:10561000606E18B1606EB0F1804F00D104E040F2CE
:105620005D1149A00DF06EFED4E917100844E8B1F1
:10563000A06E042814D0A06E052811D0A06E0628F4
:105640000ED0A06E07280BD0A06E082808D0A06E40
:105650000A2805D0A06E0E2802D0A06E122800D114
:1056600004E040F2611138A00DF04CFE94F898006F
:1056700028B9002084F89900204600F05FF92068DE
:10568000806920F010002168886100F0C5FB0546A4
:105690000EE000F0C1FB401B0A2809D9983460686D
:1056A00040F001006060032004F89809012051E6F1
:1056B0002068806900F008000828EAD02068806926
:1056C00040F001002168886100F0A6FB05460EE06D
:1056D00000F0A2FB401B0A2809D99834606840F00A
:1056E00001006060032004F89809012032E6206878
:1056F000806900F001000028EAD02068806940F04D
:10570000020021688861207C012806D12068806918
:1057100020F040002168886105E02068806940F041
:10572000400021688861607C01282BD12068806955
:1057300040F48040216888612AE0000014390108A3
:1057400000A0004000A400402E2E2F447269766510
:1057500072732F53544D3332483778785F48414C39
:105760005F4472697665722F5372632F73746D3361
:1057700032683778785F68616C5F666463616E2E4B
:10578000630000002068806920F4804021688861FF
:10579000A07C012806D12068806920F4805021680F
:1057A000886105E02068806940F480502168886144
:1057B0002068806920F44070A168084321688861EE
:1057C0002068806920F0A400216888612068006951
:1057D00020F0100021680861E068012806D12068E7
:1057E000806940F004002168886120E0E068F0B141
:1057F000E068022815D02068806940F080002168A8
:1058000088612068006940F0100021680861E06844
:1058100003280CD12068806940F02000216888614D
:1058200005E02068806940F0200021688861207EC2
:10583000401E4106E069401E41EA0020216A491EDF
:105840000843A18A491E40EA01402168C861A06856
:10585000B0F5407F0FD1A06A401EE16A491E40EAC0
:105860000121206B401E41EA0011A08C401E41EA3C
:1058700000402168C860206E38B12068D0F8C000B0
:10588000616E08432168C1F8C000D4E917100844CC
:1058900060B12068D0F8C80020F0070001AAA16E0E
:1058A00052F8211008432168C1F8C800206C60B18B
:1058B0002068D0F8BC0020F0070001AA616C52F803
:1058C000211008432168C1F8BC00A06C68B12068B1
:1058D000D0F8BC0020F0700101AAE06C52F8200062
:1058E00041EA00102168C1F8BC00206D68B1206851
:1058F000D0F8BC0020F4E06101AA606D52F82000ED
:1059000041EA00202168C1F8BC000B4920688842A8
:1059100005D16068806820F003006168886000201D
:1059200044F8940FA06001202071943C2046FCF7BD
:105930009DF8064630460DE500A0004010B5B8B011
:105940000446142132A8FAF773FFC02102A8FAF71F
:105950006FFF1F492068884237D14FF40041002073
:10596000CDE9021048031E9002A801F085FF08B19E
:10597000FCF776F800BF1748006840F480701549BE
:1059800008600846006800F48070019000BF00BF06
:1059900000BF10480C38006840F008000D490C3971
:1059A00008600846006800F00800019000BF00BFD2
:1059B000032032900220339000203490359009204B
:1059C000369032A9044800F009F838B010BD000044
:1059D00000A00040EC440258000C02582DE9F843A6
:1059E00004460D460027DFF83893CE4884421DD088
:1059F000CD4884421AD0CD48844217D0CC48844246
:105A000014D0CC48844211D0CB4884420ED0CB482D
:105A100084420BD0CA48844208D0CA48844205D088
:105A2000C948844202D0C948844200D103E0B3216E
:105A3000C7A00DF067FC288880B220B128686FF3FA
:105A40000F0000B903E0B421C1A00DF05BFC686851
:105A500030B36868012823D06868112820D06868AE
:105A600002281DD0686812281AD06868B0F5881F0F
:105A700016D06868B0F5041F12D06868B0F5441FEE
:105A80000ED06868B0F5901F0AD06868B0F5081F9E
:105A900006D06868B0F5481F02D06868032800D1B6
:105AA00003E0B521AAA00DF02DFC31E10121B940A0
:105AB000286800EA0108B8F1000F70D0287900F0DA
:105AC0000300012804D0287900F00300022823D124
:105AD000E86840B1E868012805D0E868022802D0EB
